:100000000C9496000C94BE000C94BE000C94BE00A0
:100010000C94BE000C94BE000C94BE000C94BE0068
:100020000C94BE000C94BE000C94BE000C94BE0058
:100030000C94BE000C9441040C94BE000C94BE00C1
:100040000C94F7030C94BE000C9413020C94ED0175
:100050000C94BE000C94BE000C94BE000C94BE0028
:100060000C94BE000C94BE00445241494E494E4788
:100070000057415348494E470046494C4C494E476A
:1000800000445241494E494E4700494E4355424172
:1000900054494F4E0046494C4C494E47004452414A
:1000A000494E494E470057415348494E470046493B
:1000B0004C4C494E4700445241494E494E47004638
:1000C0004C555348494E470046494C4C494E470011
:1000D00000000000240027002A0000000000250086
:1000E00028002B0000000000230026002900040443
:1000F00004040404040402020202020203030303D0
:1001000003030102040810204080010204081020AB
:100110000102040810200000000800020100000392
:1001200004070000000000000000DD1011241FBEC5
:10013000CFEFD8E0DEBFCDBF11E0A0E0B1E0E4EE4C
:10014000F9E202C005900D92AE33B107D9F723E072
:10015000AEE3B1E001C01D92A636B207E1F710E0B0
:10016000C6E9D0E004C02197FE010E94CF12C53934
:10017000D107C9F70E94F2090C94F0140C94000006
:10018000089580E090E00895FC01538D448D252F63
:1001900030E0842F90E0821B930B541710F0CF9621
:1001A000089501970895FC01918D828D981761F053
:1001B000828DDF01A80FB11D5D968C91928D9F5F9E
:1001C0009F73928F90E008958FEF9FEF0895FC0149
:1001D000918D828D981731F0828DE80FF11D858DFC
:1001E00090E008958FEF9FEF0895FC01918D228D8F
:1001F000892F90E0805C9F4F821B91098F73992714
:10020000089587E891E00E94F50021E0892B09F428
:1002100020E0822F0895FC01848DDF01A80FB11D1D
:10022000A35ABF4F2C91848D90E001968F7399272C
:10023000848FA689B7892C93A089B1898C91806419
:100240008C93938D848D981306C00288F389E02DDA
:1002500080818F7D80830895EF92FF920F931F938B
:10026000CF93DF93EC0181E0888F9B8D8C8D981369
:1002700005C0E889F989808185FD24C0F62E0B8DA3
:1002800010E00F5F1F4F0F731127E02E8C8DE812C7
:100290000CC00FB607FCFACFE889F989808185FF89
:1002A000F5CFCE010E940B01F1CF8B8DFE01E80F3F
:1002B000F11DE35AFF4FF0820B8FEA89FB898081A1
:1002C000806207C0EE89FF896083E889F9898081AF
:1002D0008064808381E090E0DF91CF911F910F9146
:1002E000FF90EF900895CF93DF93EC01888D8823E2
:1002F000C9F0EA89FB89808185FD05C0A889B98993
:100300008C9186FD0FC00FB607FCF5CF808185FF6D
:10031000F2CFA889B9898C9185FFEDCFCE010E94DB
:100320000B01E7CFDF91CF91089580E090E0892B1A
:1003300029F00E94010181110C940000089583307E
:1003400081F028F4813099F08230A1F0089587304F
:10035000A9F08830B9F08430D1F4809180008F7D8D
:1003600003C0809180008F7780938000089584B5CA
:100370008F7702C084B58F7D84BD08958091B000D1
:100380008F7703C08091B0008F7D8093B000089577
:100390003FB7F8948091830190918401A0918501E9
:1003A000B091860126B5A89B05C02F3F19F0019694
:1003B000A11DB11D3FBFBA2FA92F982F8827820FEB
:1003C000911DA11DB11DBC01CD0142E0660F771F3B
:1003D000881F991F4A95D1F708951F920F920FB663
:1003E0000F9211242F933F934F935F936F937F93BB
:1003F0008F939F93AF93BF93EF93FF9387E891E021
:100400000E940B01FF91EF91BF91AF919F918F914E
:100410007F916F915F914F913F912F910F900FBE00
:100420000F901F9018951F920F920FB60F921124E4
:100430002F938F939F93EF93FF93E0919701F09108
:1004400098018081E0919D01F0919E0182FD12C092
:1004500090818091A0018F5F8F732091A1018217FD
:1004600051F0E091A001F0E0E957FE4F958F8093A5
:10047000A00101C08081FF91EF919F918F912F91F9
:100480000F900FBE0F901F901895CF93DF93282FDA
:1004900030E0F901EA5EFE4F8491F901EE5FFE4F14
:1004A000D491F901E251FF4FC491CC2391F0811115
:1004B0000E949F01EC2FF0E0EE0FFF1FEC51FF4F69
:1004C000A591B491EC91ED2381E090E021F480E0DE
:1004D00002C080E090E0DF91CF9108951F93CF9309
:1004E000DF93282F30E0F901EA5EFE4F8491F90195
:1004F000EE5FFE4FD491F901E251FF4FC491CC233E
:10050000C9F0162F81110E949F01EC2FF0E0EE0F31
:10051000FF1FE652FF4FA591B4918FB7F8941111C8
:1005200005C09C91ED2FE095E92302C0EC91ED2BE5
:10053000EC938FBFDF91CF911F910895CF93DF93FD
:1005400090E0FC01EE5FFE4F2491FC01E251FF4F71
:100550008491882361F190E0880F991FFC01E0539A
:10056000FF4FC591D491FC01E652FF4FA591B49184
:10057000611109C09FB7F8948881209582238883F0
:10058000EC912E230BC0623061F49FB7F894388150
:10059000822F809583238883EC912E2B2C939FBFF1
:1005A00006C08FB7F894E8812E2B28838FBFDF9188
:1005B000CF9108958F929F92AF92BF92CF92DF9288
:1005C000EF92FF926B017C010E94C8014B015C011C
:1005D000C114D104E104F104F1F00E94C801DC016E
:1005E000CB0188199909AA09BB09883E9340A10546
:1005F000B10570F321E0C21AD108E108F10888EED4
:10060000880E83E0981EA11CB11CC114D104E10422
:10061000F10419F7DDCFFF90EF90DF90CF90BF90FE
:10062000AF909F908F9008952FB7F89460917F01BD
:100630007091800180918101909182012FBF089576
:10064000CF92DF92EF92FF920F931F93CF93DF939E
:10065000C0915701D09158010E9414036B017C0195
:100660008E85882359F089859A8502979A8789878C
:1006700089859A8597FF02C01A86198688810E940B
:1006800045022B8130E08217930711F413E001C07B
:1006900010E089810E9445022B8130E08217930788
:1006A00011F481E018278E819F81811B80FF12C089
:1006B000212F110F330B3F832E832C813D818270BC
:1006C000082E000C990B0197820F931F9D838C833A
:1006D00081E001C080E09E85992361F0882351F07C
:1006E00089859A85883E9B4028F489859A85499614
:1006F0009A8789878A81882309F470C040917A019A
:1007000050917B0160917C0170917D019701860180
:10071000041B150B260B370B0A301105210531057B
:1007200008F45CC0C0927A01D0927B01E0927C0117
:10073000F0927D010E9445022B8130E082179307E1
:1007400081F48091780190917901019690937901DB
:10075000809378018937910520F083E090E09C87B1
:100760008B878A810E9445023B8121E0232730E06C
:100770008217930731F58091780190917901892B47
:10078000E1F08B859C85039719F484E090E008C024
:1007900080917701823048F08C3378F486E090E0E5
:1007A0009C878B871092770108C08D85811102C0CC
:1007B00081E001C08CE3809377011092790110925F
:1007C000780180917701882349F0825080937701E6
:1007D000811104C085E090E09C878B87DF91CF91E9
:1007E0001F910F91FF90EF90DF90CF9008951F928F
:1007F0000F920FB60F9211242F933F938F939F93D5
:10080000AF93BF9380917F0190918001A09181016E
:10081000B091820130917E0123E0230F2D3720F427
:100820000196A11DB11D05C026E8230F0296A11D4A
:10083000B11D20937E0180937F0190938001A0934E
:100840008101B09382018091830190918401A091F4
:100850008501B09186010196A11DB11D8093830190
:1008600090938401A0938501B0938601BF91AF91CD
:100870009F918F913F912F910F900FBE0F901F90DE
:1008800018951F920F920FB60F9211242F933F933A
:100890004F935F936F937F938F939F93AF93BF9388
:1008A000EF93FF93E0914201F09143010995FF918D
:1008B000EF91BF91AF919F918F917F916F915F91D8
:1008C0004F913F912F910F900FBE0F901F90189551
:1008D0002F923F924F925F926F927F928F929F9250
:1008E000AF92BF92CF92DF92EF92FF920F931F933E
:1008F000CF93DF93CDB7DEB7A3970FB6F894DEBFE3
:100900000FBECDBF4B015C018DB79EB79BA38AA3E1
:1009100024013501421A530A640A750AC301B2015F
:1009200028EE33E040E050E00E943D12CA01B901D8
:100930002AE0FE0131966F01AF010E940B12F60111
:1009400001900020E9F731978F010C191D09B801BA
:100950006F5F7F4F80E090E00E9402147C0100975F
:1009600031F0FC011082B6010E94DA1402C000E0EE
:1009700010E02DB63EB6C80101962DB73EB7281B34
:10098000390B0FB6F8943EBF0FBE2DBF4DB75EB703
:100990004F5F5F4F6A01892B89F04115510571F056
:1009A0000115110511F4FA0108C0A801B701C6012B
:1009B0000E94E114F601E00FF11F1082B60181E000
:1009C00090E00E94F7080FB6F8943EBE0FBE2DBE11
:1009D000C7010E946A13A4E6B0E0A30192010E943D
:1009E0007E12A50194010E945F12A90160E070E0EF
:1009F00087E090E00E948B082AA13BA10FB6F894F3
:100A00003EBF0FBE2DBFA3960FB6F894DEBF0FBE3C
:100A1000CDBFDF91CF911F910F91FF90EF90DF90AD
:100A2000CF90BF90AF909F908F907F906F905F908E
:100A30004F903F902F90089580916F029091700297
:100A400022E0893B920719F483EB92E05EC022E03A
:100A5000833B920719F48DEA92E057C022E08D3A69
:100A6000920739F022E0873A920731F481EA92E066
:100A70004CC087EA92E049C022E0813A920719F41B
:100A80008BE992E042C022E08B39920739F022E0F4
:100A900085399207F9F48FE892E037C02091500130
:100AA00030915101809154019091550128173907D7
:100AB00018F085E992E029C087EA92E00E94710669
:100AC0008091500190915101019690935101809332
:100AD0005001089522E08F38920719F489E892E0D6
:100AE00014C022E08938920719F483E892E00DC01F
:100AF00022E08338920719F48DE792E006C022E0E5
:100B00008D37920721F487E792E00C94710687579E
:100B1000924039F520915201309153018091540156
:100B2000909155012817390770F0109256018FEBFC
:100B300092E00E94710640E050E060E070E08AE0E0
:100B400090E00C948B0883E892E00E9471068091FB
:100B50005201909153010196909353018093520159
:100B6000089508959FEF980F943008F053C0833094
:100B7000E9F08430D9F08EE190E0909345018093C4
:100B800044018FE090E090934701809346018CE30D
:100B900090E090934901809348018AE090E090931F
:100BA0004B0180934A018CE291E01AC08CE390E003
:100BB00090934501809344018EE190E0909347012A
:100BC000809346018AE590E0909349018093480123
:100BD0008AE090E090934B0180934A0188E592E08F
:100BE00090934D0180934C0180E19EE090934F01E2
:100BF00080934E0183E090E09093550180935401DF
:100C00001092510110925001109253011092520112
:100C100081E0089580E00895E0914003F091410360
:100C200083E0EC32F807A9F0A0F08FEF8083809189
:100C300040039091410301979093410380934003B7
:100C40008091600390916103019790936103809379
:100C50006003089580914B0390914C03DC01ED916A
:100C6000FC910084F185E02D09951816190694F77A
:100C700080914B0390914C03DC01ED91FC91028437
:100C8000F385E02D09950895CF92DF92EF92FF92C0
:100C90000F931F93CF93DF936C017A018B01C0E018
:100CA000D0E0CE15DF0589F0D8016D918D01D60118
:100CB000ED91FC910190F081E02DC6010995892B01
:100CC00011F47E0102C02196ECCFC701DF91CF91D4
:100CD0001F910F91FF90EF90DF90CF9008950E94A9
:100CE000CC14CF93DF93CCE6D2E02B813C813A83C6
:100CF00029839E838D830E9414036F83788789875D
:100D00009A87CE01DF91CF910895CF93C82F80911C
:100D100060039091610344971CF180914B03909183
:100D20004C03DC01ED91FC910284F385E02D0995E3
:100D300097FFF3CF1092290310922A0310922B03EE
:100D400010924503109244031092610310926003C5
:100D50008CE293E0909341038093400310922C0324
:100D60008091600390916103019690936103809359
:100D70006003E0914003F0914103CF01019690930D
:100D8000410380934003C1838C2F90E00397029727
:100D900010F410924803CF9108952F923F924F92F2
:100DA0005F926F927F928F929F92AF92BF92CF92FB
:100DB000DF92EF92FF920F931F93CF930E94140341
:100DC0008090420390904303092C000CAA08BB08B2
:100DD000860E971EA81EB91E8DEF282E33243A9436
:100DE00008EF1FEF9BEFE92EFF24FA9426E0722E06
:100DF00033E0432E5524539442E0642E5CEFC52E1D
:100E0000DD24DA940E941403681579058A059B0590
:100E100008F0D3C0109247031092460380914B0311
:100E200090914C03DC01ED91FC910084F185E02D63
:100E30000995892B39F430924703209246038DEFB0
:100E40009FEF0CC080914B0390914C03DC01ED911E
:100E5000FC910284F385E02D0995992720914603A2
:100E6000309147032D3F3F4F09F49FC0C82FE091B9
:100E70004003F09141038081813049F018F08230C5
:100E8000E1F035C0CA3051F1CB3039F42BC0CA3053
:100E900029F138F4C63009F478C0C73009F077C0BA
:100EA0001BC0CB30F9F0C53109F071C00E940C06AF
:100EB000D0924703C09246036AC0C73069F038F445
:100EC000C53009F064C00E940C0683E00EC0CA3031
:100ED00029F0CB3039F05BC084E007C010925F038B
:100EE00086E003C010925F0387E00E948506E091D0
:100EF0004003F091410380819DEF980F923008F0FC
:100F000063C080914803882309F462C090915E0316
:100F10009C2790935E03E82FF0E0E85AFC4FC083D3
:100F2000853009F062C091115CC080912B038E3036
:100F300008F052C040912A0350E090E060915803BD
:100F400070915903A0915A039A01009709F451C076
:100F50002150310910F42FE030E0729EF001739EB1
:100F6000F00D1124E753FD4FB081B61333C0B181AA
:100F7000B71330C0B281BA132DC080915B03838355
:100F800080915C038483109248030E940C060E94A7
:100F900014038090420390904303092C000CAA088C
:100FA000BB08860E971EA81EB91EE0914003F09163
:100FB00041038081811126CF9CC08FEF9FEF9093DA
:100FC00047038093460395C08650823000F72BC0BC
:100FD0009C2F9FCF0197B9CFF0924703E092460331
:100FE000D2CF10934703009346038F5F809348034B
:100FF000CECF749ED001759EB00D1124A753BD4F66
:10100000E8E5F3E0872D01900D928A95E1F7809154
:101010002A038F5F8F7080932A0380912B038F5F49
:1010200080932B03B0CF80915F03813029F4C0936C
:10103000560360925F03ABCF813028F4C093550311
:1010400050925F03A4CF823009F0A1CFC093570321
:1010500040925F03809155038A3081F4E0915103FF
:10106000F0915203309791F480915703815080930F
:1010700057038823D9F10E942A06F6CF8B30B1F5A9
:10108000E0915303F0915403309749F16C2F809114
:10109000560309952BC080914B0390914C03DC01C2
:1010A000ED91FC910084F185E02D09951816190643
:1010B00094F780914B0390914C03DC01ED91FC91EE
:1010C0000284F385E02D099580914B0390914C03A8
:1010D000DC01ED91FC910284F385E02D099580916E
:1010E00057038150809357038111D5CF0E942A0660
:1010F0004CCFCF911F910F91FF90EF90DF90CF9049
:10110000BF90AF909F908F907F906F905F904F9027
:101110003F902F900895DF92EF92FF920F931F93CD
:10112000CF93DF931F92CDB7DEB7E82EF62ED52EE4
:1011300049830E94CD0610924703109246030BE4A8
:1011400013E0D8018D919C91DC01ED91FC9101900F
:10115000F081E02D61E00995F80180819181DC0149
:10116000ED91FC910190F081E02D6E2D0995F80133
:1011700080819181DC01ED91FC910190F081E02D65
:101180006F2D099581E05F2D5827FE2CF526F8017B
:1011900080819181DC01ED91FC910190F081E02D45
:1011A0006D2D0995F801808191814981F426DC013A
:1011B000ED91FC910190F081E02D642F0995F801EB
:1011C00080819181DC01ED91FC916F2D6D25019065
:1011D000F081E02D099581E00E9485060F90DF9156
:1011E000CF911F910F91FF90EF90DF900895EF92B4
:1011F000FF920F931F93CF93DF938C017B01EB0141
:1012000009900020E9F72197C61BD70BCF3FD105E6
:1012100011F00CF04AC00E94CD0680914B039091D2
:101220004C03DC01ED91FC910190F081E02D62E036
:10123000099580914B0390914C03DC01ED91FC9159
:101240000190F081E02D602F0995B2E00B2780918D
:101250004B0390914C03DC01ED91FC910190F081E6
:10126000E02D6C2F0995C027D127D7016C91809173
:101270004B0390914C03DC01ED91FC910190F081C6
:10128000E02D662351F00995F70181917F01082E29
:10129000000C990BC827D927E8CF6C2F099581E05E
:1012A0000E94850680E090E002C08FEF9FEFDF9103
:1012B000CF911F910F91FF90EF9008950F931F937F
:1012C000CF93DF93CDB7DEB70DB71EB720E030E088
:1012D000FC01E20FF31FE4912F5F3F4FE111F8CFC4
:1012E0004DB75EB7421B530B0FB6F8945EBF0FBEEF
:1012F0004DBF6DB77EB76F5F7F4FDB01FC018491FF
:101300008D9331968111FBCF80E090E00E94F70829
:1013100080E090E00FB6F8941EBF0FBE0DBFDF91C6
:10132000CF911F910F9108956115710579F0FB011F
:1013300001900020E9F73197AF01461B570BDC0104
:10134000ED91FC910280F381E02D099480E090E022
:1013500008954F925F926F927F92EF92FF920F9358
:101360001F93CF93DF93CDB7DEB7A1970FB6F89455
:10137000DEBF0FBECDBF7C01FA01CB0119A2223026
:1013800008F42AE08E010F5D1F4F422E512C612C74
:10139000712CBF01A30192010E943D12F901CA0103
:1013A000015011096A3014F4605D01C0695CD80114
:1013B0006C93232B242B252B61F7B801C7010E94C6
:1013C0009409A1960FB6F894DEBF0FBECDBFDF9192
:1013D000CF911F910F91FF90EF907F906F905F9052
:1013E0004F900895789484B5826084BD84B58160FF
:1013F00084BD85B5826085BD85B5816085BD8091E0
:101400006E00816080936E00109281008091810057
:10141000826080938100809181008160809381004F
:10142000809180008160809380008091B100846011
:101430008093B1008091B00081608093B000809172
:101440007A00846080937A0080917A008260809331
:101450007A0080917A00816080937A0080917A008E
:10146000806880937A001092C100109268021092F6
:10147000690210926A0210926B0210922602109278
:10148000270210922802109229020E9414036B0175
:101490007C014B015C0128EB820E2BE0921EA11C0B
:1014A000B11C0E9414036C157D058E059F0528F064
:1014B00086169706A806B906A0F787E891E09093EC
:1014C000670280936602E0919701F091980182E0B3
:1014D0008083E0919301F09194011082E091950155
:1014E000F091960180E1808310929F01E0919B0131
:1014F000F0919C0186E08083E0919901F0919A013E
:10150000808180618083E0919901F0919A018081CE
:1015100088608083E0919901F0919A0180818068D0
:101520008083E0919901F0919A0180818F7D808381
:101530000E9414036093260270932702809328026E
:101540009093290268E171E08091660290916702B0
:101550000E9494090E9414036B017C014B015C0101
:101560008AE0880E911CA11CB11C0E9414036C150A
:101570007D058E059F0528F086169706A806B906F4
:10158000A0F711E010933A028FE090E00E94D5128C
:10159000EC018FE0888380E189838EE08A831B825F
:1015A0001D821C821F821E8284E088871A8619860B
:1015B0001C861B861D871E8762E08FE00E949E02AC
:1015C00062E089810E949E0262E08A810E949E02FE
:1015D00088810E9445022B8130E08217930721F415
:1015E00083E090E09F838E8389810E9445022B8156
:1015F00030E08217930731F48E819F81A1E08A2722
:101600009F838E83D0935801C0935701109280001E
:1016100080E18093810021E0209340018FB7809387
:101620004101F89480E49FE190933F0180933E0153
:101630009093870080938600809141018FBF8091B5
:101640008100887F8093810090918100809140018A
:10165000982B9093810040E253E0509343014093D4
:10166000420120936F0090918100892B809381002B
:101670008FEF9FEF9093600180935F01E09197015E
:10168000F091980182E08083E0919301F0919401C0
:101690001082E0919501F091960189E0808310928B
:1016A0009F01E0919B01F0919C0186E08083E09195
:1016B0009901F0919A01808180618083E091990184
:1016C000F0919A01808188608083E0919901F09186
:1016D0009A01808180688083E0919901F0919A015C
:1016E00080818F7D808387E891E090934C03809385
:1016F0004B0380E00E9485061092290310922A0372
:1017000010922B0361E082E00E949E0260E082E082
:101710000E946E0264E670E080E090E00E94DA02CF
:1017200061E082E00E946E026CEA7DE080E090E081
:101730000E94DA0261E085E00E949E0260E085E09E
:101740000E946E0261E086E00E949E0260E086E0F8
:101750000E946E0261E087E00E949E0260E087E0E6
:101760000E946E0261E088E00E949E0260E088E0D4
:101770000E946E0274EFC72EDD24D394E12CF12C6D
:10178000D1E00E941403672B682B692B41F40E945F
:101790001403623071058105910508F417C10E9498
:1017A0001403609373017093740180937501909397
:1017B000760100916F0110917001209171013091BB
:1017C0007201601771078207930740F460936F01FD
:1017D00070937001809371019093720100916F0179
:1017E0001091700120917101309172012B013C0127
:1017F000401A510A620A730A930182010A3F1105D5
:101800002105310508F4E2C060936F017093700107
:101810008093710190937201C0923202D092330290
:10182000E0923402F09235021092360210923702A2
:10183000109238021092390280912A0290912B0264
:10184000A0912C02B0912D0280932E0290932F0232
:10185000A0933002B09331020E94140360932A02D5
:1018600070932B0280932C0290932D020E941403FC
:101870006093260270932702809328029093290296
:101880000E9414034B015C016AE271E080916602E0
:10189000909167020E9494092AE041E050E060E0E4
:1018A00070E080916602909167020E94A90961E34D
:1018B00071E080916602909167020E9494092AE08B
:1018C000B501A40180916602909167020E94A90966
:1018D00063E371E080916602909167020E9494092F
:1018E00080912A0290912B02A0912C02B0912D029E
:1018F000B501A401481B590B6A0B7B0B2AE08091B0
:101900006602909167020E94A90963E371E08091E9
:101910006602909167020E94940940912A025091B8
:101920002B0260912C0270912D0280912E029091D9
:101930002F02A0913002B0913102481B590B6A0B63
:101940007B0B2AE080916602909167020E94A909B0
:1019500065E371E080916602909167020E949409AC
:101960000E941403AB01BC012AE0809166029091B1
:1019700067020E94A909009166021091670267E35D
:1019800071E0C8010E94940967E271E0C8010E94F9
:1019900094090E9414032B013C014B015C0122E0DD
:1019A000820E911CA11CB11C0E94140364157505C4
:1019B0008605970508F02FC10E94140360932A0240
:1019C00070932B0280932C0290932D0280916701DB
:1019D00081110CC00E941403609363017093640131
:1019E0008093650190936601D0936701E091570160
:1019F000F0915801F894248135818085823021F45A
:101A0000C9018170992705C0843031F4C901837000
:101A100099279583848302C01582148278948085E7
:101A2000843029F4359527953595279504C0823063
:101A300011F4359527958685882329F0818592852F
:101A4000892F992702C080E090E037FF03C080957E
:101A5000909506C0232B11F0019602C080E090E023
:101A60000091610110916201080F191F109362012A
:101A70000093610180915F0190916001081719073F
:101A800031F1C09156018017910774F4C430D8F435
:101A900080916F02909170028F5B9240A1F48C2F25
:101AA0000E94B205CF5F0DC0C23068F080916F0216
:101AB000909170028F5B924031F48C2F0E94B2059E
:101AC000C150C09356011093600100935F010E94C2
:101AD000140300916301109164012091650130911C
:101AE0006601DC01CB01801B910BA20BB30BC397EA
:101AF000A105B105E0F00E941403609363017093A7
:101B00006401809365019093660180916F029091CA
:101B1000700222E08F3B920709F084C04091560189
:101B200050E060E070E08BE190E00E948B08E09173
:101B30005701F0915801838594852385348523309E
:101B4000310511F0148613860097F1F00597E1F442
:101B500080916F02909170028F5B924009F0B9C240
:101B600080915601882381F010925E0110925D01F0
:101B700040E050E061E070E08AE090E00E948B0875
:101B800089EB92E00E94710680916C02E0916F02F5
:101B9000F0917002882349F00190F081E02D309798
:101BA00009F0099510926C0233C0009171021091F6
:101BB0007202E017F10711F1F0936E02E0936D02EB
:101BC0000480F581E02D309709F009951093720299
:101BD000009371021093700200936F02D801ED918F
:101BE000FC91309709F009950E94140360937302E9
:101BF000709374028093750290937602E0916F0265
:101C0000F09170020280F381E02D309709F0099580
:101C10000E949501B6CD86169706A806B90608F06B
:101C2000C3CECACEB2E0893B9B0719F488EC90E0A2
:101C3000B4C022E0833B920719F48FEB90E0ADC073
:101C4000A2E08D3A9A0719F486EB90E0A6C0B2E0C4
:101C5000873A9B0719F48EEA90E09FC022E0813A10
:101C6000920739F0A2E08B399A0731F48DE990E0C0
:101C700094C086EA90E091C0B2E085399B0719F4E0
:101C800085E990E08AC022E08F38920719F48AE84B
:101C900090E083C0A2E089389A0719F481E890E0C7
:101CA0007CC0B2E083389B0719F489E790E075C0E7
:101CB00022E08D37920719F481E790E06EC08757D4
:101CC000924009F468C080915E018130C1F028F033
:101CD0008230F9F08330B9F155C080915D018823DD
:101CE00019F042E050E002C040E050E061E070E0F6
:101CF0008BE190E00E948B0840E050E01BC0809197
:101D00005D01882319F043E050E0F0CF41E050E05E
:101D1000EDCF80915D01882319F042E050E002C0D0
:101D200040E050E061E070E08BE190E00E948B08C1
:101D300041E050E062E070E08BE190E00E948B08AF
:101D400040E050E019C080915D01882319F042E025
:101D500050E002C040E050E061E070E08BE190E0D4
:101D60000E948B0840E050E062E070E08BE190E080
:101D70000E948B0841E050E063E070E08BE190E06E
:101D80000E948B0880916F0290917002A2E0893BC3
:101D90009A0731F4FAC088E690E00E945E0993CF7A
:101DA000B2E0833B9B0731F022E08D3A920709F0C5
:101DB00078C03EC180915D0181112FC08090590192
:101DC00090905A01A0905B01B0905C010E941403B6
:101DD0000091C5021091C6022091C7023091C8023D
:101DE00024013501401A510A620A730AA3019201C3
:101DF000260F371F481F591F80914A0190914B01B0
:101E0000BC0180E090E0621773078407950718F41F
:101E10000E941C0502C00E94680480916F0290918C
:101E2000700222E08F3B920749F0A2E0893B9A07BB
:101E300009F432C1B2E0833B9B0731F460E085E0F6
:101E40000E946E0260E021C022E08D3A920709F400
:101E500032C1A2E0873A9A0709F41EC1B2E0813A82
:101E60009B0761F322E08B39920709F424C1A2E0B9
:101E700085399A0709F003C180915D018111DECF98
:101E800060E085E00E946E0261E086E00E946E02E2
:101E900060E087E00E946E0260E088E00E946E02CF
:101EA00046CEA2E0873A9A0709F46FC0B2E0813AC1
:101EB0009B0709F496C022E08B39920709F4B8C059
:101EC000A2E085399A0729F0B2E08F389B0741F5E7
:101ED0002CC080915D018111A0CF8090590190901C
:101EE0005A01A0905B01B0905C010E941403009124
:101EF000C5021091C6022091C7023091C802240188
:101F00003501401A510A620A730AA3019201260F91
:101F1000371F481F591F809146019091470170CF8C
:101F200022E08938920741F583C080915D018111DB
:101F300074CF8090590190905A01A0905B01B090AD
:101F40005C010E9414030091C5021091C602209109
:101F5000C7023091C80224013501401A510A620AB1
:101F6000730AA3019201260F371F481F591F809142
:101F70004E0190914F0144CFA2E083389A0729F097
:101F8000B2E08D379B0741F52CC080915D01811136
:101F900044CF8090590190905A01A0905B01B0907D
:101FA0005C010E9414030091C5021091C6022091A9
:101FB000C7023091C80224013501401A510A620A51
:101FC000730AA3019201260F371F481F591F8091E2
:101FD00044019091450114CF8757924009F01DCFDD
:101FE00027C080915D01811118CF80905901909098
:101FF0005A01A0905B01B0905C010E941403009113
:10200000C5021091C6022091C7023091C802240176
:102010003501401A510A620A730AA3019201260F80
:10202000371F481F591F80914C0190914D01E8CEF8
:1020300080915D018111F1CE8090590190905A01FB
:10204000A0905B01B0905C010E9414030091C50256
:102050001091C6022091C7023091C80224013501B7
:10206000401A510A620A730AA3019201260F371F10
:10207000481F591F8091480190914901C1CEB2E09B
:102080008F389B0709F4DACE22E08938920799F05D
:10209000A2E083389A0731F480915D018111CECEA0
:1020A00061E0CDCEB2E08D379B0709F4C7CE8757EC
:1020B000924009F03CCD80915D018111BFCE60E07E
:1020C00085E00E946E0260E086E00E946E0261E0A0
:1020D000E0CEC0915E01CC2309F456CDC23009F4A4
:1020E00044C0C33009F45AC0C13009F04DCD8091CD
:1020F0005D01811127C00E9414030091C502109157
:10210000C6022091C7023091C802DC01CB01801BBE
:10211000910BA20BB30B8093590190935A01A0939A
:102120005B01B0935C010E9414036093C50270933D
:10213000C6028093C7029093C802C0935D0143E03A
:1021400050E00EC00E9414036093C5027093C60253
:102150008093C7029093C80210925D0141E050E065
:1021600061E070E08BE190E025C010925E0110927A
:102170005D010E9414036093C5027093C6028093B0
:10218000C7029093C8021092590110925A011092FE
:102190005B0110925C010E941C05F6CC1092560166
:1021A0008FEB92E00E94710640E050E060E070E04A
:1021B0008AE090E00E948B08E7CCE7E8F1E0138228
:1021C000128288EE93E0A0E0B0E084839583A6833A
:1021D000B7838AE091E09183808385EC90E09587D6
:1021E000848784EC90E09787868780EC90E0918BE1
:1021F000808B81EC90E0938B828B82EC90E0958BCE
:10220000848B86EC90E0978B868B118E128E138ECA
:10221000148EE4E2F2E0168217821086118612868E
:1022200013861486158616861786108A118A128AD6
:10223000138A148A158A1092500310924F03109239
:1022400052031092510310925403109253031092B0
:102250004E0310924D03ECE2F3E01082F093410341
:10226000E093400388EE93E090934303809342030E
:1022700010924503109244031092470310924603B4
:102280001092480310924A03109249030E941403CB
:102290006093C5027093C6028093C7029093C802F0
:1022A000EFEBF2E011821082138212821582148207
:1022B000A9EBB2E011961C921E9213961C921E92EC
:1022C000129715961C921E921497A3EBB2E01196EA
:1022D0001C921E9213961C921E92129715961C9297
:1022E0001E921497ADEAB2E011961C921E921396BC
:1022F0001C921E92129715961C921E921497A7EA92
:10230000B2E011961C921E9213961C921E92129786
:1023100015961C921E921497A1EAB2E011961C9297
:102320001E9213961C921E92129715961C921E9244
:102330001497ABE9B2E011961C921E9213961C9270
:102340001E92129715961C921E921497A5E9B2E060
:1023500011961C921E9213961C921E92129715961D
:102360001C921E921497AFE8B2E011961C921E9236
:1023700013961C921E92129715961C921E921497F9
:10238000A9E8B2E011961C921E9213961C921E921E
:10239000129715961C921E921497A3E8B2E011961C
:1023A0001C921E9213961C921E92129715961C92C6
:1023B0001E921497ADE7B2E011961C921E921396EE
:1023C0001C921E92129715961C921E921497A7E7C4
:1023D000B2E011961C921E9213961C921E921297B6
:1023E00015961C921E921497ACE6B2E081E08C9395
:1023F0001696FC93EE9315971496FC93EE93139711
:102400001296FC93EE93119717961D921D921D92B2
:102410001C921A970895BB27FA01A62F621771051F
:1024200081059105330B30FB66F0AA27660F771FF5
:10243000881F991FAA1FA21710F0A21B639538507E
:10244000A9F7A05DAA3308F0A95DA19336F7B111F1
:10245000B1931082CA010C942D12DC01FC01672F8C
:1024600071917723E1F7329704C07C916D9370836B
:102470006291AE17BF07C8F30895A1E21A2EAA1BF6
:10248000BB1BFD010DC0AA1FBB1FEE1FFF1FA21724
:10249000B307E407F50720F0A21BB30BE40BF50B21
:1024A000661F771F881F991F1A9469F760957095AA
:1024B000809590959B01AC01BD01CF010895052E3B
:1024C00097FB1EF400940E94761257FD07D00E94DD
:1024D0003D1207FC03D04EF40C94761250954095B3
:1024E000309521953F4F4F4F5F4F089590958095C0
:1024F000709561957F4F8F4F9F4F08950E94C01236
:10250000A59F900DB49F900DA49F800D911D112447
:1025100008952F923F924F925F926F927F928F9287
:102520009F92AF92BF92CF92DF92EF92FF920F9362
:102530001F93CF93DF93CDB7DEB7CA1BDB0B0FB66C
:10254000F894DEBF0FBECDBF09942A883988488829
:102550005F846E847D848C849B84AA84B984C884BF
:10256000DF80EE80FD800C811B81AA81B981CE0FB6
:10257000D11D0FB6F894DEBF0FBECDBFED0108959B
:10258000A29FB001B39FC001A39F700D811D1124B4
:10259000911DB29F700D811D1124911D0895EE0FA4
:1025A000FF1F0590F491E02D0994CF93DF938230C3
:1025B000910510F482E090E0E0916403F0916503EE
:1025C00020E030E0C0E0D0E0309711F1408151814F
:1025D00048175907C0F04817590761F48281938161
:1025E000209719F09B838A832BC090936503809377
:1025F000640326C02115310519F04217530718F45A
:102600009A01BE01DF01EF010280F381E02DDCCFF2
:102610002115310509F1281B390B2430310590F4BF
:1026200012968D919C9113976115710521F0FB0114
:102630009383828304C09093650380936403FD01B8
:10264000329644C0FD01E20FF31F81939193225013
:1026500031092D933C933AC020916203309163037A
:10266000232B41F420910201309103013093630345
:102670002093620320910001309101012115310561
:1026800041F42DB73EB74091040150910501241B40
:10269000350BE0916203F0916303E217F307A0F4B6
:1026A0002E1B3F0B2817390778F0AC014E5F5F4FA8
:1026B0002417350748F04E0F5F1F50936303409374
:1026C00062038193919302C0E0E0F0E0CF01DF91DB
:1026D000CF9108950F931F93CF93DF93009709F441
:1026E0008CC0FC0132971382128200916403109116
:1026F00065030115110581F420813181820F931F3B
:1027000020916203309163032817390779F5F0931C
:102710006303E093620371C0D80140E050E0AE175C
:10272000BF0750F412962D913C911397AD012115DE
:10273000310509F1D901F3CF9D01DA0133832283F9
:1027400060817181860F971F8217930769F4EC01EE
:1027500028813981260F371F2E5F3F4F3183208319
:102760008A819B8193838283452B29F4F0936503AF
:10277000E093640342C01396FC93EE931297ED012D
:10278000499159919E01240F351FE217F30771F407
:1027900080819181840F951F029611969C938E9350
:1027A0008281938113969C938E931297E0E0F0E0E0
:1027B000D80112968D919C911397009719F0F8010A
:1027C0008C01F6CF8D919C9198012E5F3F4F820F27
:1027D000931F20916203309163032817390769F42E
:1027E000309729F4109265031092640302C013829B
:1027F00012821093630300936203DF91CF911F91C4
:102800000F910895A0E0B0E0E8E0F4E10C948D129F
:10281000EC01009721F4CB010E94D512B8C0FC0155
:10282000E60FF71F9C0122503109E217F30708F465
:10283000ACC0D9010D911C91119706171707B0F084
:102840000530110508F49FC0C80104978617970743
:1028500008F499C002501109061B170B019311933C
:102860006D937C93CF010E946A138DC05B01A01A07
:10287000B10A4C01800E911EA0916403B0916503D2
:1028800040E050E0E12CF12C109709F44AC0A81563
:10289000B905D1F56D907C901197630182E0C80E67
:1028A000D11CCA14DB0480F1A3014A195B096A0137
:1028B00082E0C80ED11C1296BC9012971396AC9170
:1028C000B5E0CB16D10440F0B282A383518340839C
:1028D000D9016D937C930AC00E5F1F4FC301800F17
:1028E000911FF90191838083EB2DFA2FE114F104FC
:1028F00031F0D7011396FC93EE93129744C0F093F6
:102900006503E09364033FC08D919C911197481734
:10291000590708F4AC017D0112960D90BC91A02DD1
:10292000B3CF809162039091630388159905E1F418
:1029300046175707C8F48091000190910101009754
:1029400041F48DB79EB74091040150910501841B5D
:10295000950BE817F907C8F4F0936303E09362035B
:10296000F901718360830FC0CB010E94D5127C01F5
:10297000009759F0A801BE010E94D114CE010E9417
:102980006A13C70104C0CE0102C080E090E0CDB759
:10299000DEB7EEE00C94A91281E090E0F8940C947C
:1029A000F014FB01DC0102C001900D924150504037
:1029B000D8F70895FB01DC0101900D920020E1F7AA
:1029C0000895FB01DC014150504048F001900D9208
:1029D0000020C9F701C01D9241505040E0F7089512
:0429E000F894FFCF99
:1029E400000066038000000000002C014406C400BF
:1029F4007301F500D300E700564D4450565F317C17
:102A0400315F564D4450560D0A00564D4450455FB3
:0E2A1400003A323A007C005F564D44504500B7
:107800000C94343C0C94513C0C94513C0C94513CE1
:107810000C94513C0C94513C0C94513C0C94513CB4
:107820000C94513C0C94513C0C94513C0C94513CA4
:107830000C94513C0C94513C0C94513C0C94513C94
:107840000C94513C0C94513C0C94513C0C94513C84
:107850000C94513C0C94513C0C94513C0C94513C74
:107860000C94513C0C94513C11241FBECFEFD8E036
:10787000DEBFCDBF11E0A0E0B1E0ECE9FFE702C060
:1078800005900D92A230B107D9F712E0A2E0B1E065
:1078900001C01D92AD30B107E1F70E942D3D0C945F
:1078A000CC3F0C94003C982F959595959595959582
:1078B000905D8F708A307CF0282F295A8091C0000B
:1078C00085FFFCCF9093C6008091C00085FFFCCF60
:1078D0002093C6000895282F205DF0CF982F809127
:1078E000C00085FFFCCF9093C6000895EF92FF92F1
:1078F0000F931F93EE24FF2487018091C00087FD22
:1079000017C00894E11CF11C011D111D81E4E8164B
:1079100082E4F8068FE0080780E0180770F3E09132
:107920000401F091050109958091C00087FFE9CF1E
:107930008091C6001F910F91FF90EF9008950E94D3
:10794000763C982F8091C00085FFFCCF9093C600B5
:1079500091362CF490330CF09053892F089597555D
:10796000892F08951F930E949F3C182F0E949F3CCF
:107970001295107F810F1F9108951F93182F882350
:1079800021F00E94763C1150E1F71F9108951F935A
:10799000182F0E94763C803249F0809103018F5F5E
:1079A000809303018530C1F01F9108958091C0003C
:1079B00085FFFCCF84E18093C6008091C00085FFE5
:1079C000FCCF1093C6008091C00085FFFCCF80E102
:1079D0008093C6001F910895E0910401F091050184
:1079E00009951F9108950E94763C803241F0809164
:1079F00003018F5F80930301853081F008958091AA
:107A0000C00085FFFCCF84E18093C6008091C00058
:107A100085FFFCCF80E18093C6000895E0910401CA
:107A2000F09105010995089540E951E08823A1F0FE
:107A30002D9A28EE33E0FA013197F1F721503040CA
:107A4000D1F72D9828EE33E0FA013197F1F7215064
:107A50003040D1F7815061F708953F924F925F9285
:107A60006F927F928F929F92AF92BF92CF92DF924E
:107A7000EF92FF920F931F93CF93DF93000080E16B
:107A80008093C4001092C50088E18093C10086E015
:107A90008093C2005098589A259A81E00E94143D24
:107AA00024E1F22E9EE1E92E85E9D82E0FE0C02ECA
:107AB00010E1B12EAA24A394B1E49B2EA6E58A2E50
:107AC000F2E57F2EE0E26E2E79E4572E63E5462E36
:107AD00050E5352E0E94763C8033B1F18133B9F107
:107AE000803409F46FC0813409F476C0823409F41B
:107AF00085C0853409F488C0803531F1823521F1A3
:107B0000813511F1853509F485C0863509F48DC0BC
:107B1000843609F496C0843709F403C1853709F423
:107B200072C1863709F466C0809103018F5F80932C
:107B30000301853079F6E0910401F0910501099582
:107B40000E94763C803351F60E94F33CC3CF0E94E2
:107B5000763C803249F78091C00085FFFCCFF092DF
:107B6000C6008091C00085FFFCCF9092C600809136
:107B7000C00085FFFCCF8092C6008091C00085FFC9
:107B8000FCCF7092C6008091C00085FFFCCF609250
:107B9000C6008091C00085FFFCCF5092C600809146
:107BA000C00085FFFCCF4092C6008091C00085FFD9
:107BB000FCCF3092C6008091C00085FFFCCFB09210
:107BC000C60088CF0E94763C863808F4BDCF0E945C
:107BD000763C0E94F33C7ECF0E94763C803809F4CC
:107BE0009CC0813809F40BC1823809F43CC1883942
:107BF00009F48FC080E00E94C73C6CCF84E10E94F2
:107C0000BD3C0E94F33C66CF85E00E94BD3C0E94D3
:107C1000F33C60CF0E94763C809306010E94763C44
:107C2000809307010E94F33C55CF0E94763C80333D
:107C300009F41DC183E00E94BD3C80E00E94C73C66
:107C400049CF0E94763C809309020E94763C809343
:107C5000080280910C028E7F80930C020E94763C79
:107C6000853409F415C18091080290910902892B8D
:107C700089F000E010E00E94763CF801E85FFE4FDA
:107C800080830F5F1F4F80910802909109020817AF
:107C9000190788F30E94763C803209F045CF809125
:107CA0000C0280FF01C16091060170910701660F0F
:107CB000771F7093070160930601A0910802B091AD
:107CC00009021097C9F0E8E0F1E09B01AD014E0F09
:107CD0005F1FF999FECF32BD21BD819180BDFA9A17
:107CE000F99A2F5F3F4FE417F50799F76A0F7B1F4B
:107CF00070930701609306018091C00085FFFCCF5F
:107D0000F092C6008091C00085FFFCCFB092C60003
:107D1000E1CE83E00E94C73CDDCE82E00E94C73CFA
:107D2000D9CE0E94763C809309020E94763C8093D3
:107D300008028091060190910701880F991F909386
:107D40000701809306010E94763C853409F4A6C0A1
:107D500080910C028E7F80930C020E94763C8032D0
:107D600009F0B8CE8091C00085FFFCCFF092C6002C
:107D7000609108027091090261157105B9F140E046
:107D800050E080910C02A82FA170B82FB27011C0E2
:107D9000BB2309F45CC0E0910601F0910701319624
:107DA000F0930701E09306014F5F5F4F46175707B7
:107DB000E8F4AA2369F3F999FECF209106013091E6
:107DC000070132BD21BDF89A90B58091C00085FFB2
:107DD000FCCF9093C6002F5F3F4F30930701209355
:107DE00006014F5F5F4F4617570718F38091C00099
:107DF00085FDE5CE8091C00085FFF8CFE0CE81E023
:107E00000E94C73C67CE0E94763C803209F08CCE3F
:107E10008091C00085FFFCCFF092C6008091C00029
:107E200085FFFCCFE092C6008091C00085FFFCCFAB
:107E3000D092C6008091C00085FFFCCFC092C600E2
:107E40008091C00085FFFCCFB092C60043CEE09188
:107E50000601F091070194918091C00085FFFCCF4D
:107E60009093C6009CCF80E10E94C73C33CE0E9415
:107E7000763C0E94763C182F0E94763C112309F430
:107E800083C0113009F484C08FE00E94C73C22CE29
:107E900080910C02816080930C02E5CE80910C02EF
:107EA000816080930C0259CF809107018823880F4D
:107EB000880B8A2180930B02809106019091070123
:107EC000880F991F90930701809306018091080203
:107ED00080FF09C080910802909109020196909359
:107EE000090280930802F894F999FECF1127E091D6
:107EF0000601F0910701C8E0D1E08091080290915D
:107F00000902103091F40091570001700130D9F34B
:107F100003E000935700E89500915700017001308D
:107F2000D9F301E100935700E89509901990009169
:107F3000570001700130D9F301E000935700E89534
:107F40001395103498F011270091570001700130FB
:107F5000D9F305E000935700E895009157000170B0
:107F60000130D9F301E100935700E895329602976A
:107F700009F0C7CF103011F00296E5CF112480919F
:107F8000C00085FFB9CEBCCE8EE10E94C73CA2CD19
:0C7F900085E90E94C73C9ECDF894FFCF0D
:027F9C00800063
:040000030000780081
:00000001FF