:100000000C94ED010C9415020C9415020C9415023D
:100010000C9415020C9415020C9415020C94150204
:100020000C9415020C9415020C9415020C941502F4
:100030000C9415020C944C050C9415020C941502AA
:100040000C9402050C9415020C949B030C947503FC
:100050000C9415020C9415020C9415020C941502C4
:100060000C9415020C9415020000000024002700D7
:100070002A00000000002300260029002E2E2E203A
:1000800054696D656F757421002A2A2A2047656EB0
:10009000696520436F6E7472617374202A2A2A2066
:1000A0002D2D2D3E002E2E2E204E414B2021002A9C
:1000B0002A2A2047656E696520436F6E74726173EA
:1000C00074202A2A2A202D2D2D3E002E2E2E20414E
:1000D000434B2021002A2A2A2047656E6965204368
:1000E0006F6E7472617374202A2A2A202D2D2D3E82
:1000F000002E2E2E2054696D656F757421002A2AFA
:100100002A2047656E69652057726974654F626A77
:10011000656374202A2A2A202D2D2D3E002E2E2E96
:10012000204E414B2021002A2A2A2047656E69650E
:100130002057726974654F626A656374202A2A2A9F
:10014000202D2D2D3E002E2E2E2041434B20210010
:100150002A2A2A2047656E69652057726974654F9F
:10016000626A656374202A2A2A202D2D2D3E002ADA
:100170002A2A2047656E69652042616420427974AD
:1001800065202A2A2A202D2D2D3E20307800205649
:10019000616C75653A200020496E6465783A2000EC
:1001A0002A2A2A2047656E6965205265706F72742D
:1001B000204F626A656374202A2A2A204F626A658A
:1001C00063743A20002A2A2A2047656E6965204315
:1001D0006F6E6E6563746564202F2053796E6321A2
:1001E000202A2A2A002056616C75653A2000204991
:1001F0006E6465783A20002A2A2A2047656E696570
:10020000205265706F7274204576656E74202A2ABC
:100210002A204F626A6563743A2000204C656E673D
:1002200074683A20002A2A2A2047656E69652052A0
:1002300065636569766564204D6167696320446F15
:1002400075626C65204279746573202A2A2A2049D8
:100250006E6465783A2000204C656E6774683A20B9
:10026000002A2A2A2047656E696520526563656900
:10027000766564204D6167696320427974657320F7
:100280002A2A2A20496E6465783A20002A2A2A20E0
:1002900047656E6965204E414B205265636F7665F8
:1002A000727920212121202A2A2A002A2A2A20475D
:1002B000656E696520446973636F6E6E656374650E
:1002C000642066726F6D20446F4576656E7473218D
:1002D000202A2A2A002A2A2A2047656E6965205486
:1002E0006F6F6B20746F6F206C6F6E6720746F2060
:1002F00072652D656E74657220446F4576656E7407
:100300007328292C207265647563652064656C61AF
:10031000797320696E20636F64652C2073656C6649
:100320002D70726F74656374696F6E20656E6162A3
:100330006C65642E202A2A2A00000000002500286F
:10034000002B000404040404040404020202020258
:100350000203030303030301020408102040800189
:100360000204081020010204081020000000080008
:100370000201000003040700000000000000002A42
:100380002A2A2047656E696520446973636F6E6E23
:1003900065637465642066726F6D204765744E6591
:1003A00078744279746521202A2A2A002A2A2A2070
:1003B00047656E696520456E61626C6520417474A5
:1003C0006163684576656E7448616E646C65722021
:1003D000212121202A2A2A00DB1511241FBECFEF5C
:1003E000D8E0DEBFCDBF23E0A6E3B2E001C01D929E
:1003F000A23FB207E1F712E0A0E0B1E0ECEBF2E3DC
:1004000002C005900D92A633B107D9F711E0CDEEE9
:10041000D1E004C02197FE010E943B17CC3ED107DA
:10042000C9F70E94D00F0C945C190C940000089539
:1004300080E090E00895FC01538D448D252F30E03D
:10044000842F90E0821B930B541710F0CF960895E1
:1004500001970895FC01918D828D981761F0828D2E
:10046000DF01A80FB11D5D968C91928D9F5F9F73E8
:10047000928F90E008958FEF9FEF0895FC01918D8A
:10048000828D981731F0828DE80FF11D858D90E0F7
:1004900008958FEF9FEF0895FC01918D228D892F94
:1004A00090E0805C9F4F821B91098F73992708957C
:1004B0008BE592E00E944C0221E0892B09F420E0B8
:1004C000822F0895FC01848DDF01A80FB11DA35A6E
:1004D000BF4F2C91848D90E001968F739927848F64
:1004E000A689B7892C93A089B1898C9180648C935B
:1004F000938D848D981306C00288F389E02D808146
:100500008F7D80830895EF92FF920F931F93CF9377
:10051000DF93EC0181E0888F9B8D8C8D981305C053
:10052000E889F989808185FD24C0F62E0B8D10E0C5
:100530000F5F1F4F0F731127E02E8C8DE8120CC038
:100540000FB607FCFACFE889F989808185FFF5CFDE
:10055000CE010E946202F1CF8B8DFE01E80FF11DEA
:10056000E35AFF4FF0820B8FEA89FB89808180621A
:1005700007C0EE89FF896083E889F98980818064FA
:10058000808381E090E0DF91CF911F910F91FF90E8
:10059000EF900895CF93DF93EC01888D8823C9F005
:1005A000EA89FB89808185FD05C0A889B9898C917C
:1005B00086FD0FC00FB607FCF5CF808185FFF2CF17
:1005C000A889B9898C9185FFEDCFCE010E94620286
:1005D000E7CFDF91CF91089580E090E0892B29F05B
:1005E0000E94580281110C9400000895CF93DF936C
:1005F00090E0FC01E95AFC4F2491FC01ED5BFC4FBB
:100600008491882361F190E0880F991FFC01E859DB
:10061000FF4FC591D491FC01E75CFC4FA591B491CB
:10062000611109C09FB7F89488812095822388833F
:10063000EC912E230BC0623061F49FB7F89438819F
:10064000822F809583238883EC912E2B2C939FBF40
:1006500006C08FB7F894E8812E2B28838FBFDF91D7
:10066000CF9108953FB7F894809142029091430250
:10067000A0914402B091450226B5A89B05C02F3F2A
:1006800019F00196A11DB11D3FBFBA2FA92F982FB8
:100690008827820F911DA11DB11DBC01CD0142E033
:1006A000660F771F881F991F4A95D1F7089580918B
:1006B000D803882339F040914C0250E060E08BE190
:1006C0000C948E0A08958091D803882369F041E044
:1006D00050E060E08AE00E948E0A40914C0250E0B7
:1006E00060E08BE10C948E0A08951F920F920FB672
:1006F0000F9211242F933F934F935F936F937F93A8
:100700008F939F93AF93BF93EF93FF938BE592E00B
:100710000E946202FF91EF91BF91AF919F918F91E3
:100720007F916F915F914F913F912F910F900FBEED
:100730000F901F9018951F920F920FB60F921124D1
:100740002F938F939F93EF93FF93E0916B02F09120
:100750006C028081E0917102F091720282FD12C000
:100760009081809174028F5F8F7320917502821740
:1007700051F0E0917402F0E0E55AFD4F958F8093BF
:10078000740201C08081FF91EF919F918F912F9111
:100790000F900FBE0F901F901895833081F028F4B2
:1007A000813099F08230A1F008958730A9F0883027
:1007B000B9F08430D1F4809180008F7D03C08091A6
:1007C00080008F7780938000089584B58F7702C072
:1007D00084B58F7D84BD08958091B0008F7703C06C
:1007E0008091B0008F7D8093B0000895CF93DF9308
:1007F000282F30E0F901E559FC4F8491F901E95ABD
:10080000FC4FD491F901ED5BFC4FC491CC2391F0E6
:1008100081110E94CD03EC2FF0E0EE0FFF1FEE5888
:10082000FF4FA591B491EC91ED2381E090E021F48C
:1008300080E002C080E090E0DF91CF9108952FB773
:10084000F89460913E0270913F0280914002909135
:1008500041022FBF0895CF92DF92EF92FF920F9344
:100860001F93CF93DF93C0915102D09152020E9407
:100870001F046B017C018E85882359F089859A8538
:1008800002979A87898789859A8597FF02C01A8679
:10089000198688810E94F6032B8130E08217930726
:1008A00011F413E001C010E089810E94F6032B814E
:1008B00030E08217930711F481E018278E819F8121
:1008C000811B80FF12C0212F110F330B3F832E831A
:1008D0002C813D818270082E000C990B0197820FAC
:1008E000931F9D838C8381E001C080E09E859923C6
:1008F00061F0882351F089859A85883E9B4028F4D1
:1009000089859A8549969A8789878A81882309F4F7
:1009100070C04091390250913A0260913B0270914F
:100920003C0297018601041B150B260B370B0A307E
:1009300011052105310508F45CC0C0923902D0923E
:100940003A02E0923B02F0923C020E94F6032B81B5
:1009500030E08217930781F480913702909138023A
:10096000019690933802809337028937910520F0E1
:1009700083E090E09C878B878A810E94F6033B810D
:1009800021E0232730E08217930731F58091370269
:1009900090913802892BE1F08B859C85039719F49F
:1009A00084E090E008C080913602823048F08C33B9
:1009B00078F486E090E09C878B871092360208C01E
:1009C0008D85811102C081E001C08CE380933602E5
:1009D000109238021092370280913602882349F033
:1009E000825080933602811104C085E090E09C879C
:1009F0008B87DF91CF911F910F91FF90EF90DF9048
:100A0000CF9008951F920F920FB60F9211242F933B
:100A10003F938F939F93AF93BF9380913E029091AA
:100A20003F02A0914002B091410230913D0223E08B
:100A3000230F2D3720F40196A11DB11D05C026E816
:100A4000230F0296A11DB11D20933D0280933E020B
:100A500090933F02A0934002B093410280914202E2
:100A600090914302A0914402B09145020196A11DCC
:100A7000B11D8093420290934302A0934402B0932D
:100A80004502BF91AF919F918F913F912F910F9010
:100A90000FBE0F901F9018951F920F920FB60F92D6
:100AA00011242F933F934F935F936F937F938F9373
:100AB0009F93AF93BF93EF93FF93E0914A02F0911E
:100AC0004B020995FF91EF91BF91AF919F918F914B
:100AD0007F916F915F914F913F912F910F900FBE3A
:100AE0000F901F901895CF92DF92EF92FF920F9385
:100AF0001F93CF93DF9300D000D000D0CDB7DEB7E7
:100B00008091D8038091D803811105C08091D003D2
:100B1000082F10E002C002EE14E00E941F04C090F3
:100B2000D403D090D503E090D603F090D703AB0167
:100B3000BC014C195D096E097F09C801A0E0B0E055
:100B400084179507A607B707E8F50E941F0460936E
:100B5000D4037093D5038093D6039093D70381E099
:100B60008093D1038091C4039091C503DC01ED9182
:100B7000FC910190F081E02D60E009958091C40323
:100B80009091C503DC01ED91FC910190F081E02D85
:100B90006AE009958091C4039091C503DC01ED9151
:100BA000FC910190F081E02D60E009958091C403F3
:100BB0009091C503DC01ED91FC910190F081E02D55
:100BC0006AE009950E941F040091E0031091E1037F
:100BD0002091E2033091E303DC01CB01801B910BF8
:100BE000A20BB30B803D9740A105B105A0F00E9478
:100BF0001F046093D9037093DA038093DB0390930F
:100C0000DC038091C6039091C703009721F065ED46
:100C100072E00E94A20E0E941F046093E003709392
:100C2000E1038093E2039093E3038091D803882348
:100C3000E9F10E941F040091D9031091DA03209179
:100C4000DB033091DC03DC01CB01801B910BA20B99
:100C5000B30B813D9740A105B10540F10E941F04EF
:100C60006093D9037093DA038093DB039093DC03E2
:100C70001092D8031092CF038091C6039091C703BE
:100C8000009721F06BEA72E00E94A20E80E889834F
:100C900082E88A831B821C821D821E82CE010196FD
:100CA0000E94B80E8FEF8093DD0329C48091D80392
:100CB00081110DC01092CE038FEF8093DD0310924F
:100CC000E4031092E5031092E6031092E70380918B
:100CD000C4039091C503DC01ED91FC910084F18582
:100CE000E02D0995181619060CF0D9C28091C4039D
:100CF0009091C503DC01ED91FC910484F585E02D14
:100D000009959091D803911105C096EF980F9230F4
:100D100008F46CC2873009F461C118F5853009F414
:100D2000E5C1863009F062C20E941F046093D903B6
:100D30007093DA038093DB039093DC038091C40308
:100D40009091C503DC01ED91FC910284F385E02DC7
:100D500009951092DF031092CE031092DE0386E015
:100D6000CEC38B3009F4C8C0853121F08A3009F434
:100D700053C03CC20E941F046093D9037093DA03EE
:100D80008093DB039093DC038091C4039091C503AF
:100D9000DC01ED91FC910284F385E02D09958091B1
:100DA000DE038F5F8093DE038091C4039091C503BF
:100DB000DC01ED91FC910484F585E02D09954597C2
:100DC00061F48091C4039091C503DC01ED91FC9125
:100DD0000284F385E02D0995E7CF8091DE03823010
:100DE000C0F01092DE038091C6039091C703009774
:100DF00021F06CE872E00E940C0E8091C403909187
:100E0000C503DC01ED91FC910190F081E02D6FEFC5
:100E100009951092CE0355C28091C4039091C503E9
:100E2000DC01ED91FC910084F185E02D099503979B
:100E30000CF435C28091C4039091C503DC01ED919F
:100E4000FC910284F385E02D099589838091C40388
:100E50009091C503DC01ED91FC910284F385E02DB6
:100E600009958A838091C4039091C503DC01ED91BB
:100E7000FC910284F385E02D09958B830E941F0469
:100E80006093D9037093DA038093DB039093DC03C0
:100E90001092DF038091ED03863021F08091ED0305
:100EA000853039F48091C6039091C703009709F00B
:100EB0000AC2E091CA03F091CB03309721F06B8115
:100EC0008A81099515C000E010E08B8190E0081739
:100ED000190774F48091C4039091C503DC01ED916E
:100EE000FC910284F385E02D09950F5F1F4FEDCF34
:100EF0000E94210F8AE003C38091C4039091C5032F
:100F0000DC01ED91FC910084F185E02D09950397BA
:100F10000CF4C5C18091C4039091C503DC01ED912F
:100F2000FC910284F385E02D099589838091C403A7
:100F30009091C503DC01ED91FC910284F385E02DD5
:100F400009958A838091C4039091C503DC01ED91DA
:100F5000FC910284F385E02D09958B830E941F0488
:100F60006093D9037093DA038093DB039093DC03DF
:100F70001092DF038091ED03863021F08091ED0324
:100F8000853039F48091C6039091C703009709F02A
:100F9000BFC1E091CC03F091CD03309721F06B817C
:100FA0008A81099517C000E010E08B8190E0880FDE
:100FB000991F0817190774F48091C4039091C50311
:100FC000DC01ED91FC910284F385E02D09950F5F22
:100FD0001F4FEBCF0E94210F8BE091C28091C40381
:100FE0009091C503DC01ED91FC910084F185E02D29
:100FF000099506970CF453C18091C4039091C503E1
:10100000DC01ED91FC910284F385E02D0995898343
:101010008091C4039091C503DC01ED91FC910284A1
:10102000F385E02D09958A838091C4039091C503CF
:10103000DC01ED91FC910284F385E02D09958B8311
:101040008091C4039091C503DC01ED91FC91028471
:10105000F385E02D09958C838091C4039091C5039D
:10106000DC01ED91FC910284F385E02D09958D83DF
:101070008091C4039091C503DC01ED91FC91028441
:10108000F385E02D09958E8329819A8192272B8102
:1010900092272C8192272D81922798132FC20E948C
:1010A0001F046093D9037093DA038093DB0390935A
:1010B000DC031092DF038A818A3019F48B818093DC
:1010C000DD038091ED03863021F08091ED038230C5
:1010D00039F48091C6039091C703009709F03DC190
:1010E000CE0101960E94B80E87E009C28091C40328
:1010F0009091C503DC01ED91FC910084F185E02D18
:10110000099506970CF4CBC08091C4039091C50358
:10111000DC01ED91FC910284F385E02D0995898332
:101120008091C4039091C503DC01ED91FC91028490
:10113000F385E02D09958A838091C4039091C503BE
:10114000DC01ED91FC910284F385E02D09958B8300
:101150008091C4039091C503DC01ED91FC91028460
:10116000F385E02D09958C838091C4039091C5038C
:10117000DC01ED91FC910284F385E02D09958D83CE
:101180008091C4039091C503DC01ED91FC91028430
:10119000F385E02D09958E8329819A8192272B81F1
:1011A00092272C8192272D8192279813A7C10E9404
:1011B0001F046093D9037093DA038093DB03909349
:1011C000DC031092DF038A818A3019F49D819093A9
:1011D000DD039091D103911105C09091CF03992324
:1011E00009F43FC18A3009F03CC143C08091C40377
:1011F0009091C503DC01ED91FC910284F385E02D13
:101200000995F82E8091C6039091C7030097A9F025
:101210006FE671E00E940C0E0091C6031091C703A7
:101220004F2D50E060E070E020E1C8010E94450EC3
:1012300068E371E0C8010E94300E8091DF038F5F88
:101240008093DF038091DF038B30D8F11092DF03AE
:101250000E941F04DC01CB018052914DAF4FBF4F64
:101260008093D9039093DA03A093DB03B093DC035C
:1012700028C08091D1038111A9C08091CF03882318
:1012800071F01092CF0380E8898386E08A831B8205
:101290001C821D821E82CE0101960E94B80E809192
:1012A000CE0381112BC18091C303882309F426C189
:1012B000E091C803F091C903309709F41FC1099563
:1012C0001DC185E11CC161E672E00E940C0E6A81BD
:1012D0008091C6039091C7030E941A0F67E572E0E0
:1012E0008091C6039091C7030E940C0E0091C60323
:1012F0001091C7034B8150E060E070E02AE0C80124
:101300000E94450E68E371E0C8010E94300ED1CD05
:1013100065E272E00E940C0E6A818091C603909192
:10132000C7030E941A0F6BE172E08091C60390918F
:10133000C7030E940C0E0091C6031091C7034B8196
:1013400050E060E070E02AE0C8010E94450E68E3CA
:1013500071E0C8010E94300E1CCE67EF71E00E9460
:101360000C0E6A818091C6039091C7030E941A0FE8
:101370006EEE71E08091C6039091C7030E940C0E3F
:101380006B818091C6039091C7030E941A0F65EE8E
:1013900071E08091C6039091C7030E940C0E0091EA
:1013A000C6031091C7034C8150E0542F44278D8110
:1013B000480F511D60E070E02AE0C8010E94450E10
:1013C00068E371E0C8010E94300E8ACE1092D1030A
:1013D0008091D80381113DC00E941F046093E403F3
:1013E0007093E5038093E6039093E7038091C6032F
:1013F0009091C703009721F065EC71E00E94A20E66
:1014000080E8898381E88A831B821C821D821E8278
:10141000CE0101960E94B80E8091C4039091C5033D
:10142000DC01ED91FC910084F185E02D0995181601
:10143000190664F48091C4039091C503DC01ED9119
:10144000FC910284F385E02D0995E6CF81E080933D
:10145000D8038091EC03882309F421CF1092EC0388
:101460000CC08091ED03863051F08091ED03833004
:1014700031F0CE0101960E94B80E85E040C0809107
:10148000C6039091C7030097A1F360EA71E00E9440
:101490000C0E6A818091C6039091C7030E941A0FB7
:1014A00067E971E08091C6039091C7030E940C0E1A
:1014B0006B818091C6039091C7030E941A0F6EE85A
:1014C00071E08091C6039091C7030E940C0E0091B9
:1014D000C6031091C7034C8150E0542F44278D81DF
:1014E000480F511D60E070E02AE0C8010E94450EDF
:1014F00068E371E0C8010E94300EBBCF80E0269601
:101500000FB6F894DEBF0FBECDBFDF91CF911F9114
:101510000F91FF90EF90DF90CF900895CF92DF92E0
:10152000EF92FF920F931F93CF93DF939091D80385
:10153000992309F4F0C0D52FF42E062FC82F11E0FF
:101540001093CE038091C4039091C503DC01ED910B
:10155000FC910190F081E02D61E009958091C40338
:101560009091C503DC01ED91FC910190F081E02D9B
:101570006C2F09958091C4039091C503DC01ED9116
:10158000FC910190F081E02D602F09958091C403BA
:101590009091C503DC01ED91FC910190F081E02D6B
:1015A0006D2F09958091C4039091C5030F251027D5
:1015B0001C27DC01ED91FC910190F081E02D6F2D55
:1015C00009958091C4039091C503DC01ED91FC91D4
:1015D000612F6D270190F081E02D09950E941F0475
:1015E0006B017C010E941F042091D2033091D30330
:1015F000AB01BC014C195D096E097F09C901A0E06E
:10160000B0E084179507A607B70708F44EC00E94FC
:101610007305863021F58091ED03863029F08091A5
:10162000ED03813009F073C08091C6039091C70328
:10163000009709F46CC060E571E00E940C0E6C2FFD
:101640008091C6039091C7030E941A0F66E471E06F
:101650008091C6039091C7030E94A20E58C08531A5
:1016600009F68091ED03863029F08091ED038130F9
:1016700009F04FC08091C6039091C703009709F409
:1016800048C067E271E00E940C0E6C2F8091C60387
:101690009091C7030E941A0F6DE171E08091C6031B
:1016A0009091C7030E94A20E34C00E941F04DC0167
:1016B000CB018052914DAF4FBF4F8093D903909390
:1016C000DA03A093DB03B093DC038091ED03863053
:1016D00021F08091ED038130F1F48091C603909167
:1016E000C7030097C1F06EEF70E00E940C0E6C2FE4
:1016F0008091C6039091C7030E941A0F61EF70E0BA
:101700008091C6039091C7030E94A20E04C081E09D
:1017100003C080E001C08FEFDF91CF911F910F9147
:10172000FF90EF90DF90CF900895EBE5F2E0A08975
:10173000B18982E08C93A485B5851C92A685B78576
:1017400080E18C93108EA489B58986E08C93A28960
:10175000B3898C9180618C93A289B3898C918860C4
:101760008C93A289B3898C9180688C930288F389C9
:10177000E02D80818F7D80830895CF92DF92EF925C
:10178000FF920F931F93CF93DF936C017A018B012C
:10179000C0E0D0E0CE15DF0589F0D8016D918D0154
:1017A000D601ED91FC910190F081E02DC6010995E3
:1017B000892B11F47E0102C02196ECCFC701DF9185
:1017C000CF911F910F91FF90EF90DF90CF900895F0
:1017D0000E9438190F931F93CF93DF93EC018881F8
:1017E0009981009729F02A813B812617370788F4D1
:1017F0008B016F5F7F4F0E946E18009761F0998395
:1018000088831B830A832C813D81232B11F4FC01E7
:10181000108281E001C080E0DF91CF911F910F9194
:101820000895CF92DF92EF92FF92CF93DF93D82E5D
:101830007B0181E08093CE03FB0101900020E9F75A
:101840003197EF01C61BD70BCF3FD10519F014F02C
:101850008FEF5FC08091C4039091C503DC01ED91CF
:10186000FC910190F081E02D62E009958091C40324
:101870009091C503DC01ED91FC910190F081E02D88
:101880006D2D09958091C4039091C503DC01ED9104
:10189000FC910190F081E02D6C2F099592E08D2D47
:1018A0008927C827D7016C918091C4039091C50303
:1018B000DC01ED91FC910190F081E02D662329F08F
:1018C0000995F70181917F01ECCF6C2F09950E945A
:1018D0001F046B017C010E941F042091D2033091F0
:1018E000D303AB01BC014C195D096E097F09C90125
:1018F000A0E0B0E084179507A607B70708F4A8CFC3
:101900000E947305863021F0853129F780E001C0FF
:1019100081E0DF91CF91FF90EF90DF90CF9008951D
:101920001F93CF93DF93EDE6F3E09491E9E5F3E0C5
:10193000D491E5E4F3E0C491CC23D9F0182F992396
:1019400019F0892F0E94CD03EC2FF0E0EE0FFF1F5E
:10195000E75CFC4FA591B4918FB7F894111105C0C5
:101960009C91ED2FE095E92302C0EC91ED2BEC93D7
:101970008FBFDF91CF911F9108958F929F92AF9269
:10198000BF92CF92DF92EF92FF926B017C010E9497
:101990001F044B015C01C60ED71EE81EF91E0E94F3
:1019A0001F04681579058A059B0528F0C616D70619
:1019B000E806F906A0F7FF90EF90DF90CF90BF9078
:1019C000AF909F908F900895BF92CF92DF92EF9249
:1019D000FF920F931F93CF93DF93CDB7DEB7B82E4F
:1019E000CDB6DEB6FB010481158198012F5F3F4F14
:1019F0008DB79EB7821B930B0FB6F8949EBF0FBE98
:101A00008DBFEDB7FEB731967F01232B81F0309764
:101A100071F00115110551F0FB0160817181A80180
:101A2000C7010E944D19F701E00FF11F108280914C
:101A3000D803882321F0B7018B2D0E94110C80E080
:101A40000FB6F894DEBE0FBECDBEDF91CF911F91D1
:101A50000F91FF90EF90DF90CF90BF900895EF929D
:101A6000FF920F931F93CF93DF93FC012481358165
:101A70006115710511F480E019C041155105A9F0F7
:101A80007B01EC018A01020F131FB8010E94EA0BCF
:101A9000882389F3288139818C819D81B701820F48
:101AA000931F0E9446191D830C8381E0DF91CF9123
:101AB0001F910F91FF90EF900895CF93DF93EC016A
:101AC00088819981009711F00E94D6171982188297
:101AD0001D821C821B821A82DF91CF9108950F9381
:101AE0001F93CF93DF93EC010C811D810C5F1F4F7F
:101AF000B8010E94EA0B882369F0288139818C8122
:101B00009D8160E372E0820F931F0E9446191D833E
:101B10000C8303C0CE010E945D0DCE01DF91CF91F9
:101B20001F910F910895EF92FF920F931F93CF9300
:101B3000DF93EC017B018A01BA010E94EA0B81115B
:101B400004C0CE010E945D0D07C01D830C83B70148
:101B5000888199810E944619CE01DF91CF911F9112
:101B60000F91FF90EF900895FC01808191810C947A
:101B7000D617EF92FF920F931F93CF93DF93CDB7BA
:101B8000DEB729970FB6F894DEBF0FBECDBF8C012C
:101B9000862FF8011182108213821282158214821C
:101BA00050E09E012F5F3F4F7901B90190E00E9404
:101BB000AD16F70101900020E9F73197AF014E19FA
:101BC0005F09B701C8010E94930D29960FB6F894DA
:101BD000DEBF0FBECDBFDF91CF911F910F91FF9060
:101BE000EF900895FB01DC0111961C921E92139652
:101BF0001C921E92129715961C921E92149786178D
:101C0000970749F0608171816115710521F0448168
:101C100055810C94930D0895EF92FF920F931F93AB
:101C2000CF93DF938C017B01C0E0D0E0F701EC0F94
:101C3000FD1F6491662361F0D801ED91FC91019044
:101C4000F081E02DC8010995892B11F02196EECF86
:101C5000CE01DF91CF911F910F91FF90EF900895EA
:101C60006115710579F0FB0101900020E9F73197CA
:101C7000AF01461B570BDC01ED91FC910280F38113
:101C8000E02D099480E090E008954F925F926F926A
:101C90007F92EF92FF920F931F93CF93DF93CDB775
:101CA000DEB7A1970FB6F894DEBF0FBECDBF7C01A3
:101CB000FA01CB0119A2223008F42AE08E010F5D4F
:101CC0001F4F422E512C612C712CBF01A301920198
:101CD0000E94E216F901CA01015011096A3014F498
:101CE000605D01C0695CD8016C93232B242B252BEC
:101CF00061F7B801C7010E94300EA1960FB6F894A3
:101D0000DEBF0FBECDBFDF91CF911F910F91FF902E
:101D1000EF907F906F905F904F9008950F931F9377
:101D2000CF93DF93EC010E94300E8C0168E371E0E9
:101D3000CE010E94300E800F911FDF91CF911F9135
:101D40000F9108950F931F93CF93DF93EC010E949F
:101D50000C0E8C0168E371E0CE010E94300E800F02
:101D6000911FDF91CF911F910F9108950C94300E28
:101D7000CF93FC018091C8039091C903892B59F43A
:101D80008091C6039091C7030097C1F16CEA73E09C
:101D90000E94A20E33C08091C3038E3008F047C06A
:101DA0004091C20350E090E09A0166E0009741F153
:101DB0002150310910F42FE030E0629FD001639F81
:101DC000B00D1124AF59BC4FCC917081C71314C012
:101DD0001196CC9111977181C7130EC01296CC91B8
:101DE00012977281C71308C0838113968C9313973F
:101DF000848114968C931BC00197D8CF8FEF18C0A5
:101E000086E0849FD001859FB00D1124AF59BC4F4F
:101E100001900D928A95E1F78091C2038F5F8F70D8
:101E20008093C2038091C3038F5F8093C30380E0DC
:101E3000CF910895462F50E060E070E02AE00C94C6
:101E4000450ECF92DF92EF92FF92CF93DF9300D0B7
:101E500000D000D0CDB7DEB78091D803882309F435
:101E600091C00E941F046B017C018091C40390917A
:101E7000C503DC01ED91FC910084F185E02D09950D
:101E8000181619060CF45EC00E941F046093E0034C
:101E90007093E1038093E2039093E3030E941F0495
:101EA0006093D9037093DA038093DB039093DC0390
:101EB0000E941F04DC01CB018C199D09AE09BF09EA
:101EC000803D9740A105B10580F20E941F046093F8
:101ED000D9037093DA038093DB039093DC031092B1
:101EE000D8038091C4039091C503DC01ED91FC916E
:101EF0000084F185E02D09951816190664F4809187
:101F0000C4039091C503DC01ED91FC910284F3853B
:101F1000E02D0995E6CF8091C6039091C703009705
:101F200021F06FE773E00E94A20E80E8898382E8C7
:101F30008A831B821C821D821E82CE0101960E9412
:101F4000B80E20C00E941F046093E0037093E10369
:101F50008093E2039093E3030E941F046093D903EC
:101F60007093DA038093DB039093DC038091C403C6
:101F70009091C503DC01ED91FC910284F385E02D85
:101F8000099501C08FEF26960FB6F894DEBF0FBEFD
:101F9000CDBFDF91CF91FF90EF90DF90CF9008956C
:101FA000CF93DF93CDB7DEB768970FB6F894DEBF57
:101FB0000FBECDBF789484B5826084BD84B5816046
:101FC00084BD85B5826085BD85B5816085BD809104
:101FD0006E00816080936E0010928100809181007C
:101FE0008260809381008091810081608093810074
:101FF000809180008160809380008091B100846036
:102000008093B1008091B00081608093B000809196
:102010007A00846080937A0080917A008260809355
:102020007A0080917A00816080937A0080917A00B2
:10203000806880937A001092C10010923C03109245
:102040003D0310923E0310923F031092FA02109249
:10205000FB021092FC021092FD0268EB7BE080E034
:1020600090E00E94BD0C8BE592E090933B0380933F
:102070003A030E94950B0E941F046093FA0270932A
:10208000FB028093FC029093FD0269E271E0809173
:102090003A0390913B030E94B60E6AE070E080E044
:1020A00090E00E94BD0CFF24F394F0920E038FE0A9
:1020B00090E00E9441178C018FE0D8018C9380E161
:1020C00011968C9311978EE012968C93129713961B
:1020D0001C92139715961C921E92149717961C9299
:1020E0001E9216971896FC9218971A961C921E929A
:1020F00019971C961C921E921B971D96FC921D9779
:102100001E96FC9262E08FE00E94F60262E0F80107
:1021100081810E94F60262E0D80112968C910E94A1
:10212000F602F80180810E94F603D80113962C91E3
:10213000139730E08217930731F483E090E017960D
:102140009C938E931697F80181810E94F603D80123
:1021500013962C91139730E08217930749F4169643
:102160008D919C911797B1E08B27F8019783868317
:1021700010935202009351021092800080E18093EC
:10218000810011E0109348028FB780934902F894C0
:1021900080E49FE1909347028093460290938700EA
:1021A00080938600809149028FBF80918100887F53
:1021B000809381009091810080914802982B9093A8
:1021C00081002BE234E030934B0220934A021093BB
:1021D0006F0090918100892B809381008FEF9FEF9A
:1021E00090934E0280934D020E94950B8BE592E0F6
:1021F0009093C5038093C4030E941F046093E4037B
:102200007093E5038093E6039093E7031093EC0348
:102210008091D803882381F18091C4039091C503F4
:10222000DC01ED91FC910190F081E02D60E00995D9
:102230008091C4039091C503DC01ED91FC91019064
:10224000F081E02D6AE009958091C4039091C50367
:10225000DC01ED91FC910190F081E02D60E00995A9
:102260008091C4039091C503DC01ED91FC91019034
:10227000F081E02D6AE009950E941F046B017C014A
:102280000E941F04DC01CB018C199D09AE09BF0916
:102290008B3F9105A105B10548F40E947305853077
:1022A00079F78091EC038111EBCF02C01092D80333
:1022B00061E082E00E94F60281E00E94900C0E94A0
:1022C00032034B015C01A4E6CA2ED12CE12CF12C87
:1022D0000E943203DC01CB0188199909AA09BB09C4
:1022E000883E9340A105B10558F0B1E0CB1AD10862
:1022F000E108F108E8EE8E0EE3E09E1EA11CB11C81
:10230000C114D104E104F10419F780E00E94900C9B
:102310008091D803882309F484C081E08093CE03A0
:102320008091C4039091C503DC01ED91FC91019073
:10233000F081E02D64E009958091C4039091C5037C
:10234000DC01ED91FC910190F081E02D6FE00995A9
:102350008091C4039091C503DC01ED91FC91019043
:10236000F081E02D6BE009950E941F046B017C0158
:102370000E941F042091D2033091D303AB01BC0112
:102380004C195D096E097F09C901A0E0B0E084170E
:102390009507A607B70730F10E947305863081F4D0
:1023A0008091ED03863021F08091ED038130C9F5F5
:1023B0008091C6039091C703009709F0BEC131C058
:1023C0008531B1F68091ED03863021F08091ED03E7
:1023D000813039F58091C6039091C703009709F0C9
:1023E000B3C11FC00E941F04DC01CB018052914D7C
:1023F000AF4FBF4F8093D9039093DA03A093DB03D1
:10240000B093DC038091ED03863021F08091ED03E1
:10241000813039F48091C6039091C703009709F089
:10242000A0C186E990E09093D3038093D20380917A
:10243000D803882329F06BE371E080E00E94110C3F
:1024400070E3872E75E7972EA12CB12CE8EE4E2E67
:10245000E3E05E2E612C712CFBE52F2EF3E03F2E86
:102460000E941F04672B682B692B41F40E941F04F4
:10247000623071058105910508F404C10E941F04B2
:1024800060935702709358028093590290935A02B6
:10249000009153021091540220915502309156023E
:1024A000601771078207930740F46093530270939B
:1024B000540280935502909356020091530210915A
:1024C000540220915502309156026B017C01C01AD2
:1024D000D10AE20AF30A970186010A3F1105210594
:1024E000310508F4CFC06093530270935402809377
:1024F00055029093560224EF31E040E050E02093E3
:102500000603309307034093080350930903109286
:102510000A0310920B0310920C0310920D0380918A
:10252000FE029091FF02A0910003B09101038093FD
:10253000020390930303A0930403B09305030E9446
:102540001F046093FE027093FF0280930003909338
:1025500001030E941F046093FA027093FB028093B0
:10256000FC029093FD020E941F046B017C0163E555
:1025700071E080913A0390913B030E94B60E61E0B6
:1025800080913A0390913B030E941A0F6AE571E033
:1025900080913A0390913B030E94B60E2AE0B70166
:1025A000A60180913A0390913B030E94450E6CE591
:1025B00071E080913A0390913B030E94B60E8091A6
:1025C000FE029091FF02A0910003B0910103B701B8
:1025D000A601481B590B6A0B7B0B2AE080913A033A
:1025E00090913B030E94450E6CE571E080913A03A7
:1025F00090913B030E94B60E4091FE025091FF0263
:102600006091000370910103809102039091030394
:10261000A0910403B0910503481B590B6A0B7B0B77
:102620002AE080913A0390913B030E94450E6EE5AB
:1026300071E080913A0390913B030E94B60E0E9494
:102640001F04AB01BC012AE080913A0390913B0347
:102650000E94450E60E671E080913A0390913B0341
:102660000E948E0E62E070E080E090E00E94BD0C5F
:102670000E941F046093FE027093FF028093000388
:1026800090930103E0915102F0915202F8948481F9
:1026900095812085223021F49C012170332705C0CB
:1026A000243031F49C01237033273583248302C006
:1026B0001582148278942085243029F49595879585
:1026C0009595879504C0223011F4959587952685B8
:1026D000222329F021853285232F332702C020E0D1
:1026E00030E097FF04C0C9018095909507C0892B01
:1026F00019F0C901019602C080E090E020914F02DC
:1027000030915002820F931F9093500280934F029A
:1027100020914D0230914E028217930721F03093A1
:10272000500220934F02809147039091480333E079
:102730008F34930709F0BBC01BC065ED70E00E94A9
:102740000C0E6BEC70E006C06FEA70E00E940C0E9D
:1027500065EA70E08091C6039091C7030E94A20EC3
:1027600060CE69E870E00E940C0E6CE770E0F2CF7A
:102770000E941F0400914B0310914C0320914D03C4
:1027800030914E03DC01CB01801B910BA20BB30BEC
:10279000893B9B40A105B10508F461C141E050E0CF
:1027A00061E08AE00E948E0A4AE060914C02CE010C
:1027B00001960E94B90D18861F821A8619861C86FA
:1027C0001B864AE050E067E671E0CE0107960E9462
:1027D000930D4D815E8169817A81CE0107960E94B9
:1027E0002F0D811104C0CE0107960E945D0DBE0120
:1027F000695F7F4FCE0143960E94F20DCE0107968E
:102800000E94B40DCE0101960E94B40DBE016D5E12
:102810007F4F80E00E94E40C4AE06EE1CE01079613
:102820000E94B90DBE01695F7F4FCE0101960E94E3
:10283000F20DCE0101960E946F0DBC01CE010D96E6
:102840000E94F20DCE0101960E94B40DCE010796B2
:102850000E94B40DBE01635F7F4F81E00E94E40CD3
:102860004EE150E060E088E00E948E0A0E941F0462
:10287000609340037093410380934203909343031A
:1028800080914703909148039093460380934503BA
:1028900030924A03209249030E941F0460934B0325
:1028A00070934C0380934D0390934E03D0C08B558F
:1028B000934009F0D4C00E941F0400914B03109173
:1028C0004C0320914D0330914E03DC01CB01801B62
:1028D000910BA20BB30B81339547A105B105C0F055
:1028E000809147039091480390934603809345035A
:1028F00045E553E050934A03409349030E941F0467
:1029000060934B0370934C0380934D0390934E035D
:102910000E941F0400914003109141032091420343
:1029200030914303DC01CB01801B910BA20BB30B55
:1029300085369105A105B10508F491C00E941F04D8
:102940006093400370934103809342039093430349
:102950000E941F0400914B0310914C0320914D03E2
:1029600030914E03DC01CB01801B910BA20BB30B0A
:1029700075016401C81AD90AEA0AFB0AC701B6013F
:10298000A30192010E94E216122F4AE060914C02CC
:10299000CE0101960E94B90D18861F821A861986EB
:1029A0001C861B864AE050E067E671E0CE01079680
:1029B0000E94930D4D815E8169817A81CE010796D7
:1029C0000E942F0D811104C0CE0107960E945D0D5B
:1029D000BE01695F7F4FCE0143960E94F20DCE018A
:1029E00007960E94B40DCE0101960E94B40DBE015F
:1029F0006D5E7F4F80E00E94E40C4AE0612FCE01C3
:102A000007960E94B90DBE01695F7F4FCE01019606
:102A10000E94F20DCE0101960E946F0DBC01CE0105
:102A20000D960E94F20DCE0101960E94B40DCE01CA
:102A300007960E94B40DBE01635F7F4F81E00E9444
:102A4000E40C412F50E060E088E00E948E0ACE0145
:102A50000D960E94B40DCE0143960E94B40DE091F4
:102A60005102F09152020385148583859485039762
:102A700011F0148613860115110509F44BC062E7A5
:102A800071E08BE592E00E94B60E04301105A1F0D2
:102A90004CF40230110569F003301105D9F561E9F4
:102AA00071E034C00530110551F00630110551F0C8
:102AB00031C06BE771E02AC064EA71E027C06BEBBC
:102AC00071E024C061ED71E08BE592E00E948E0E12
:102AD000E0915102F0915202968581E08927868724
:102AE000811102C0128611866DEE71E08BE592E0D5
:102AF0000E94B60EE0915102F0915202868581113A
:102B000003C060E271E002C068E171E08BE592E031
:102B10000E948E0E8091D803811106C060E072E0A1
:102B20008BE592E00E948E0E80914403E091470372
:102B3000F0914803882349F00190F081E02D30970F
:102B400009F009951092440333C000914903109194
:102B50004A03E017F10711F1F0934603E0934503B0
:102B60000480F581E02D309709F0099510934A0310
:102B7000009349031093480300934703D801ED9154
:102B8000FC91309709F009950E941F0460934B0354
:102B900070934C0380934D0390934E03E091470351
:102BA000F09148030280F381E02D309709F00995F8
:102BB0000E94EC0255CCEBE5F2E01382128288EE23
:102BC00093E0A0E0B0E084839583A683B7838AE096
:102BD00091E09183808385EC90E09587848784ECF5
:102BE00090E09787868780EC90E0918B808B81ECDA
:102BF00090E0938B828B82EC90E0958B848B86ECBB
:102C000090E0978B868B118E128E138E148EE8EFC8
:102C1000F2E01682178210861186128613861486B9
:102C2000158616861786108A118A128A138A148AC4
:102C3000158A1092CE031092CF0382E38093D003C3
:102C40001092D10382EE94E09093D3038093D20349
:102C50000E941F046093D4037093D5038093D6031E
:102C60009093D7031092D8030E941F046093D90356
:102C70007093DA038093DB039093DC038FEF8093F0
:102C8000DD031092DE031092DF030E941F046093A5
:102C9000E0037093E1038093E2039093E3031092C7
:102CA000E4031092E5031092E6031092E70381E03B
:102CB0008093EC031092ED031092C9031092C803A5
:102CC0001092CB031092CA031092CD031092CC0342
:102CD0001092C7031092C603EBE5F3E01182108255
:102CE0001382128215821482E5E5F3E023E633E0D5
:102CF000318320831382128215821482AFE4B3E001
:102D000027E533E011963C932E9313961C921E9266
:102D1000129715961C921E921497A4E4B3E08C931C
:102D20001696FC93EE9315971496FC93EE931397D7
:102D30001296FC93EE93119717961D921D921D9279
:102D40001C921A970E941F046093400370934103E2
:102D5000809342039093430308954532510520F434
:102D6000423010F00C94B816FB011082CB0108958C
:102D7000BB27FB015527AA27880F991FAA1FA41755
:102D800010F0A41B83955051B9F7A05DAA3308F049
:102D9000A95DA193009779F7B111B1931192CB017D
:102DA0000C94D216DC01FC01672F71917723E1F7B7
:102DB000329704C07C916D9370836291AE17BF0708
:102DC000C8F30895A1E21A2EAA1BBB1BFD010DC07A
:102DD000AA1FBB1FEE1FFF1FA217B307E407F507CB
:102DE00020F0A21BB30BE40BF50B661F771F881FA7
:102DF000991F1A9469F760957095809590959B013D
:102E0000AC01BD01CF0108952F923F924F925F9286
:102E10006F927F928F929F92AF92BF92CF92DF92EA
:102E2000EF92FF920F931F93CF93DF93CDB7DEB74F
:102E3000CA1BDB0B0FB6F894DEBF0FBECDBF0994E3
:102E40002A88398848885F846E847D848C849B843A
:102E5000AA84B984C884DF80EE80FD800C811B8148
:102E6000AA81B981CE0FD11D0FB6F894DEBF0FBE77
:102E7000CDBFED010895EE0FFF1F0590F491E02DF9
:102E80000994CF93DF938230910510F482E090E0B3
:102E9000E091F003F091F10320E030E0C0E0D0E0F9
:102EA000309711F14081518148175907C0F04817F8
:102EB000590761F482819381209719F09B838A835B
:102EC0002BC09093F1038093F00326C021153105A8
:102ED00019F04217530718F49A01BE01DF01EF0100
:102EE0000280F381E02DDCCF2115310509F1281B8B
:102EF000390B2430310590F412968D919C911397E3
:102F00006115710521F0FB019383828304C09093C6
:102F1000F1038093F003FD01329644C0FD01E20FFE
:102F2000F31F81939193225031092D933C933AC022
:102F30002091EE033091EF03232B41F42091020105
:102F4000309103013093EF032093EE0320910001B1
:102F5000309101012115310541F42DB73EB7409163
:102F6000040150910501241B350BE091EE03F09113
:102F7000EF03E217F307A0F42E1B3F0B28173907C6
:102F800078F0AC014E5F5F4F2417350748F04E0FC5
:102F90005F1F5093EF034093EE038193919302C020
:102FA000E0E0F0E0CF01DF91CF9108950F931F9300
:102FB000CF93DF93009709F48CC0FC013297138202
:102FC00012820091F0031091F1030115110581F4B3
:102FD00020813181820F931F2091EE033091EF0306
:102FE0002817390779F5F093EF03E093EE0371C0EA
:102FF000D80140E050E0AE17BF0750F412962D9173
:103000003C911397AD012115310509F1D901F3CF99
:103010009D01DA013383228360817181860F971FBE
:103020008217930769F4EC0128813981260F371F35
:103030002E5F3F4F318320838A819B8193838283DC
:10304000452B29F4F093F103E093F00342C013966B
:10305000FC93EE931297ED01499159919E01240F33
:10306000351FE217F30771F480819181840F951F5A
:10307000029611969C938E938281938113969C93D2
:103080008E931297E0E0F0E0D80112968D919C911A
:103090001397009719F0F8018C01F6CF8D919C9150
:1030A00098012E5F3F4F820F931F2091EE033091C6
:1030B000EF032817390769F4309729F41092F103C8
:1030C0001092F00302C0138212821093EF03009358
:1030D000EE03DF91CF911F910F910895A0E0B0E032
:1030E000E4E7F8E10C940817EC01009721F4CB0118
:1030F0000E944117B8C0FC01E60FF71F9C01225047
:103100003109E217F30708F4ACC0D9010D911C9105
:10311000119706171707B0F00530110508F49FC086
:10312000C80104978617970708F499C0025011093F
:10313000061B170B019311936D937C93CF010E9493
:10314000D6178DC05B01A01AB10A4C01800E911EEA
:10315000A091F003B091F10340E050E0E12CF12C9C
:10316000109709F44AC0A815B905D1F56D907C9067
:103170001197630182E0C80ED11CCA14DB0480F1F0
:10318000A3014A195B096A0182E0C80ED11C12969C
:10319000BC9012971396AC91B5E0CB16D10440F0D9
:1031A000B282A38351834083D9016D937C930AC07B
:1031B0000E5F1F4FC301800F911FF9019183808320
:1031C000EB2DFA2FE114F10431F0D7011396FC93A3
:1031D000EE93129744C0F093F103E093F0033FC0E5
:1031E0008D919C9111974817590708F4AC017D0106
:1031F00012960D90BC91A02DB3CF8091EE039091CB
:10320000EF0388159905E1F446175707C8F4809134
:10321000000190910101009741F48DB79EB7409154
:10322000040150910501841B950BE817F907C8F4B8
:10323000F093EF03E093EE03F901718360830FC015
:10324000CB010E9441177C01009759F0A801BE01F3
:103250000E943D19CE010E94D617C70104C0CE01BD
:1032600002C080E090E0CDB7DEB7EEE00C9424170A
:1032700081E090E0F8940C945C19FB01DC0102C041
:1032800001900D9241505040D8F70895FB01DC01A8
:1032900001900D920020E1F70895FB01DC014150FF
:1032A000504048F001900D920020C9F701C01D92D6
:0C32B00041505040E0F70895F894FFCF23
:1032BC000000F2038000000000008302BD0B1B0223
:1032CC00CA024C022A023E02656E61626C656400A1
:1032DC0064697361626C656400564D4450565F318D
:1032EC007C315F564D4450560D0A0047656E69653A
:1032FC0041726475696E6F2030382D32322D323048
:10330C00313700564D4450455F003A323A007C004C
:10331C005F564D44504500524F554E54494E452032
:10332C002300427574746F6E3A2000436C69636BB2
:10333C00456E636F6465723A3A5072657373656477
:10334C0000436C69636B456E636F6465723A3A480F
:10335C00656C6400436C69636B456E636F64657286
:10336C003A3A52656C656173656400436C69636BD2
:10337C00456E636F6465723A3A436C69636B65645E
:10338C0000436C69636B456E636F6465723A3A44D3
:10339C006F75626C65436C69636B656400202041DA
:1033AC006363656C65726174696F6E20697320006C
:1033BC00446973706C61792069736E2774206F6E29
:1033CC006C696E652E20506C656173652063686551
:1033DC00636B20636F6E6E656374696F6E732E0022
:0633EC0020736563000080
:107800000C94343C0C94513C0C94513C0C94513CE1
:107810000C94513C0C94513C0C94513C0C94513CB4
:107820000C94513C0C94513C0C94513C0C94513CA4
:107830000C94513C0C94513C0C94513C0C94513C94
:107840000C94513C0C94513C0C94513C0C94513C84
:107850000C94513C0C94513C0C94513C0C94513C74
:107860000C94513C0C94513C11241FBECFEFD8E036
:10787000DEBFCDBF11E0A0E0B1E0ECE9FFE702C060
:1078800005900D92A230B107D9F712E0A2E0B1E065
:1078900001C01D92AD30B107E1F70E942D3D0C945F
:1078A000CC3F0C94003C982F959595959595959582
:1078B000905D8F708A307CF0282F295A8091C0000B
:1078C00085FFFCCF9093C6008091C00085FFFCCF60
:1078D0002093C6000895282F205DF0CF982F809127
:1078E000C00085FFFCCF9093C6000895EF92FF92F1
:1078F0000F931F93EE24FF2487018091C00087FD22
:1079000017C00894E11CF11C011D111D81E4E8164B
:1079100082E4F8068FE0080780E0180770F3E09132
:107920000401F091050109958091C00087FFE9CF1E
:107930008091C6001F910F91FF90EF9008950E94D3
:10794000763C982F8091C00085FFFCCF9093C600B5
:1079500091362CF490330CF09053892F089597555D
:10796000892F08951F930E949F3C182F0E949F3CCF
:107970001295107F810F1F9108951F93182F882350
:1079800021F00E94763C1150E1F71F9108951F935A
:10799000182F0E94763C803249F0809103018F5F5E
:1079A000809303018530C1F01F9108958091C0003C
:1079B00085FFFCCF84E18093C6008091C00085FFE5
:1079C000FCCF1093C6008091C00085FFFCCF80E102
:1079D0008093C6001F910895E0910401F091050184
:1079E00009951F9108950E94763C803241F0809164
:1079F00003018F5F80930301853081F008958091AA
:107A0000C00085FFFCCF84E18093C6008091C00058
:107A100085FFFCCF80E18093C6000895E0910401CA
:107A2000F09105010995089540E951E08823A1F0FE
:107A30002D9A28EE33E0FA013197F1F721503040CA
:107A4000D1F72D9828EE33E0FA013197F1F7215064
:107A50003040D1F7815061F708953F924F925F9285
:107A60006F927F928F929F92AF92BF92CF92DF924E
:107A7000EF92FF920F931F93CF93DF93000080E16B
:107A80008093C4001092C50088E18093C10086E015
:107A90008093C2005098589A259A81E00E94143D24
:107AA00024E1F22E9EE1E92E85E9D82E0FE0C02ECA
:107AB00010E1B12EAA24A394B1E49B2EA6E58A2E50
:107AC000F2E57F2EE0E26E2E79E4572E63E5462E36
:107AD00050E5352E0E94763C8033B1F18133B9F107
:107AE000803409F46FC0813409F476C0823409F41B
:107AF00085C0853409F488C0803531F1823521F1A3
:107B0000813511F1853509F485C0863509F48DC0BC
:107B1000843609F496C0843709F403C1853709F423
:107B200072C1863709F466C0809103018F5F80932C
:107B30000301853079F6E0910401F0910501099582
:107B40000E94763C803351F60E94F33CC3CF0E94E2
:107B5000763C803249F78091C00085FFFCCFF092DF
:107B6000C6008091C00085FFFCCF9092C600809136
:107B7000C00085FFFCCF8092C6008091C00085FFC9
:107B8000FCCF7092C6008091C00085FFFCCF609250
:107B9000C6008091C00085FFFCCF5092C600809146
:107BA000C00085FFFCCF4092C6008091C00085FFD9
:107BB000FCCF3092C6008091C00085FFFCCFB09210
:107BC000C60088CF0E94763C863808F4BDCF0E945C
:107BD000763C0E94F33C7ECF0E94763C803809F4CC
:107BE0009CC0813809F40BC1823809F43CC1883942
:107BF00009F48FC080E00E94C73C6CCF84E10E94F2
:107C0000BD3C0E94F33C66CF85E00E94BD3C0E94D3
:107C1000F33C60CF0E94763C809306010E94763C44
:107C2000809307010E94F33C55CF0E94763C80333D
:107C300009F41DC183E00E94BD3C80E00E94C73C66
:107C400049CF0E94763C809309020E94763C809343
:107C5000080280910C028E7F80930C020E94763C79
:107C6000853409F415C18091080290910902892B8D
:107C700089F000E010E00E94763CF801E85FFE4FDA
:107C800080830F5F1F4F80910802909109020817AF
:107C9000190788F30E94763C803209F045CF809125
:107CA0000C0280FF01C16091060170910701660F0F
:107CB000771F7093070160930601A0910802B091AD
:107CC00009021097C9F0E8E0F1E09B01AD014E0F09
:107CD0005F1FF999FECF32BD21BD819180BDFA9A17
:107CE000F99A2F5F3F4FE417F50799F76A0F7B1F4B
:107CF00070930701609306018091C00085FFFCCF5F
:107D0000F092C6008091C00085FFFCCFB092C60003
:107D1000E1CE83E00E94C73CDDCE82E00E94C73CFA
:107D2000D9CE0E94763C809309020E94763C8093D3
:107D300008028091060190910701880F991F909386
:107D40000701809306010E94763C853409F4A6C0A1
:107D500080910C028E7F80930C020E94763C8032D0
:107D600009F0B8CE8091C00085FFFCCFF092C6002C
:107D7000609108027091090261157105B9F140E046
:107D800050E080910C02A82FA170B82FB27011C0E2
:107D9000BB2309F45CC0E0910601F0910701319624
:107DA000F0930701E09306014F5F5F4F46175707B7
:107DB000E8F4AA2369F3F999FECF209106013091E6
:107DC000070132BD21BDF89A90B58091C00085FFB2
:107DD000FCCF9093C6002F5F3F4F30930701209355
:107DE00006014F5F5F4F4617570718F38091C00099
:107DF00085FDE5CE8091C00085FFF8CFE0CE81E023
:107E00000E94C73C67CE0E94763C803209F08CCE3F
:107E10008091C00085FFFCCFF092C6008091C00029
:107E200085FFFCCFE092C6008091C00085FFFCCFAB
:107E3000D092C6008091C00085FFFCCFC092C600E2
:107E40008091C00085FFFCCFB092C60043CEE09188
:107E50000601F091070194918091C00085FFFCCF4D
:107E60009093C6009CCF80E10E94C73C33CE0E9415
:107E7000763C0E94763C182F0E94763C112309F430
:107E800083C0113009F484C08FE00E94C73C22CE29
:107E900080910C02816080930C02E5CE80910C02EF
:107EA000816080930C0259CF809107018823880F4D
:107EB000880B8A2180930B02809106019091070123
:107EC000880F991F90930701809306018091080203
:107ED00080FF09C080910802909109020196909359
:107EE000090280930802F894F999FECF1127E091D6
:107EF0000601F0910701C8E0D1E08091080290915D
:107F00000902103091F40091570001700130D9F34B
:107F100003E000935700E89500915700017001308D
:107F2000D9F301E100935700E89509901990009169
:107F3000570001700130D9F301E000935700E89534
:107F40001395103498F011270091570001700130FB
:107F5000D9F305E000935700E895009157000170B0
:107F60000130D9F301E100935700E895329602976A
:107F700009F0C7CF103011F00296E5CF112480919F
:107F8000C00085FFB9CEBCCE8EE10E94C73CA2CD19
:0C7F900085E90E94C73C9ECDF894FFCF0D
:027F9C00800063
:040000030000780081
:00000001FF