:100000000C9496000C94BE000C94BE000C94BE00A0
:100010000C94BE000C94BE000C94BE000C94BE0068
:100020000C94BE000C94BE000C94BE000C94BE0058
:100030000C94BE000C9441040C94BE000C94BE00C1
:100040000C94F7030C94BE000C9413020C94ED0175
:100050000C94BE000C94BE000C94BE000C94BE0028
:100060000C94BE000C94BE00445241494E494E4788
:100070000057415348494E470046494C4C494E476A
:1000800000445241494E494E4700494E4355424172
:1000900054494F4E0046494C4C494E47004452414A
:1000A000494E494E470057415348494E470046493B
:1000B0004C4C494E4700445241494E494E47004638
:1000C0004C555348494E470046494C4C494E470011
:1000D00000000000240027002A0000000000250086
:1000E00028002B0000000000230026002900040443
:1000F00004040404040402020202020203030303D0
:1001000003030102040810204080010204081020AB
:100110000102040810200000000800020100000392
:1001200004070000000000000000C00E11241FBEE4
:10013000CFEFD8E0DEBFCDBF11E0A0E0B1E0E6E850
:10014000F5E202C005900D92A831B107D9F722E07F
:10015000A8E1B1E001C01D92A03FB207E1F710E0B5
:10016000C6E9D0E004C02197FE010E94A010C53965
:10017000D107C9F70E9494090C94C1120C94000095
:10018000089580E090E00895FC01538D448D252F63
:1001900030E0842F90E0821B930B541710F0CF9621
:1001A000089501970895FC01918D828D981761F053
:1001B000828DDF01A80FB11D5D968C91928D9F5F9E
:1001C0009F73928F90E008958FEF9FEF0895FC0149
:1001D000918D828D981731F0828DE80FF11D858DFC
:1001E00090E008958FEF9FEF0895FC01918D228D8F
:1001F000892F90E0805C9F4F821B91098F73992714
:10020000089589E591E00E94F50021E0892B09F429
:1002100020E0822F0895FC01848DDF01A80FB11D1D
:10022000A35ABF4F2C91848D90E001968F7399272C
:10023000848FA689B7892C93A089B1898C91806419
:100240008C93938D848D981306C00288F389E02DDA
:1002500080818F7D80830895EF92FF920F931F938B
:10026000CF93DF93EC0181E0888F9B8D8C8D981369
:1002700005C0E889F989808185FD24C0F62E0B8DA3
:1002800010E00F5F1F4F0F731127E02E8C8DE812C7
:100290000CC00FB607FCFACFE889F989808185FF89
:1002A000F5CFCE010E940B01F1CF8B8DFE01E80F3F
:1002B000F11DE35AFF4FF0820B8FEA89FB898081A1
:1002C000806207C0EE89FF896083E889F9898081AF
:1002D0008064808381E090E0DF91CF911F910F9146
:1002E000FF90EF900895CF93DF93EC01888D8823E2
:1002F000C9F0EA89FB89808185FD05C0A889B98993
:100300008C9186FD0FC00FB607FCF5CF808185FF6D
:10031000F2CFA889B9898C9185FFEDCFCE010E94DB
:100320000B01E7CFDF91CF91089580E090E0892B1A
:1003300029F00E94010181110C940000089583307E
:1003400081F028F4813099F08230A1F0089587304F
:10035000A9F08830B9F08430D1F4809180008F7D8D
:1003600003C0809180008F7780938000089584B5CA
:100370008F7702C084B58F7D84BD08958091B000D1
:100380008F7703C08091B0008F7D8093B000089577
:100390003FB7F8948091550190915601A091570173
:1003A000B091580126B5A89B05C02F3F19F00196C2
:1003B000A11DB11D3FBFBA2FA92F982F8827820FEB
:1003C000911DA11DB11DBC01CD0142E0660F771F3B
:1003D000881F991F4A95D1F708951F920F920FB663
:1003E0000F9211242F933F934F935F936F937F93BB
:1003F0008F939F93AF93BF93EF93FF9389E591E022
:100400000E940B01FF91EF91BF91AF919F918F914E
:100410007F916F915F914F913F912F910F900FBE00
:100420000F901F9018951F920F920FB60F921124E4
:100430002F938F939F93EF93FF93E0916901F09136
:100440006A018081E0916F01F091700182FD12C01C
:100450009081809172018F5F8F7320917301821759
:1004600051F0E0917201F0E0E75AFE4F958F8093D2
:10047000720101C08081FF91EF919F918F912F9127
:100480000F900FBE0F901F901895CF93DF93282FDA
:1004900030E0F901EA5EFE4F8491F901EE5FFE4F14
:1004A000D491F901E251FF4FC491CC2391F0811115
:1004B0000E949F01EC2FF0E0EE0FFF1FEC51FF4F69
:1004C000A591B491EC91ED2381E090E021F480E0DE
:1004D00002C080E090E0DF91CF9108951F93CF9309
:1004E000DF93282F30E0F901EA5EFE4F8491F90195
:1004F000EE5FFE4FD491F901E251FF4FC491CC233E
:10050000C9F0162F81110E949F01EC2FF0E0EE0F31
:10051000FF1FE652FF4FA591B4918FB7F8941111C8
:1005200005C09C91ED2FE095E92302C0EC91ED2BE5
:10053000EC938FBFDF91CF911F910895CF93DF93FD
:1005400090E0FC01EE5FFE4F2491FC01E251FF4F71
:100550008491882361F190E0880F991FFC01E0539A
:10056000FF4FC591D491FC01E652FF4FA591B49184
:10057000611109C09FB7F8948881209582238883F0
:10058000EC912E230BC0623061F49FB7F894388150
:10059000822F809583238883EC912E2B2C939FBFF1
:1005A00006C08FB7F894E8812E2B28838FBFDF9188
:1005B000CF9108958F929F92AF92BF92CF92DF9288
:1005C000EF92FF926B017C010E94C8014B015C011C
:1005D000C114D104E104F104F1F00E94C801DC016E
:1005E000CB0188199909AA09BB09883E9340A10546
:1005F000B10570F321E0C21AD108E108F10888EED4
:10060000880E83E0981EA11CB11CC114D104E10422
:10061000F10419F7DDCFFF90EF90DF90CF90BF90FE
:10062000AF909F908F9008952FB7F89460915101EB
:100630007091520180915301909154012FBF089500
:10064000CF92DF92EF92FF920F931F93CF93DF939E
:10065000C0913101D09132010E9414036B017C01E1
:100660008E85882359F089859A8502979A8789878C
:1006700089859A8597FF02C01A86198688810E940B
:1006800045022B8130E08217930711F413E001C07B
:1006900010E089810E9445022B8130E08217930788
:1006A00011F481E018278E819F81811B80FF12C089
:1006B000212F110F330B3F832E832C813D818270BC
:1006C000082E000C990B0197820F931F9D838C833A
:1006D00081E001C080E09E85992361F0882351F07C
:1006E00089859A85883E9B4028F489859A85499614
:1006F0009A8789878A81882309F470C040914C01C8
:1007000050914D0160914E0170914F01970186010A
:10071000041B150B260B370B0A301105210531057B
:1007200008F45CC0C0924C01D0924D01E0924E01A1
:10073000F0924F010E9445022B8130E0821793070F
:1007400081F480914A0190914B01019690934B0165
:1007500080934A018937910520F083E090E09C87DF
:100760008B878A810E9445023B8121E0232730E06C
:100770008217930731F580914A0190914B01892BA3
:10078000E1F08B859C85039719F484E090E008C024
:1007900080914901823048F08C3378F486E090E013
:1007A0009C878B871092490108C08D85811102C0FA
:1007B00081E001C08CE38093490110924B011092BB
:1007C0004A0180914901882349F082508093490170
:1007D000811104C085E090E09C878B87DF91CF91E9
:1007E0001F910F91FF90EF90DF90CF9008951F928F
:1007F0000F920FB60F9211242F933F938F939F93D5
:10080000AF93BF938091510190915201A0915301F8
:10081000B09154013091500123E0230F2D3720F483
:100820000196A11DB11D05C026E8230F0296A11D4A
:10083000B11D209350018093510190935201A093D8
:100840005301B09354018091550190915601A091AC
:100850005701B09158010196A11DB11D809355011A
:1008600090935601A0935701B0935801BF91AF9157
:100870009F918F913F912F910F900FBE0F901F90DE
:1008800018951F920F920FB60F9211242F933F933A
:100890004F935F936F937F938F939F93AF93BF9388
:1008A000EF93FF93E0911C01F0911D010995FF91D9
:1008B000EF91BF91AF919F918F917F916F915F91D8
:1008C0004F913F912F910F900FBE0F901F90189551
:1008D0002F923F924F925F926F927F928F929F9250
:1008E000AF92BF92CF92DF92EF92FF920F931F933E
:1008F000CF93DF93CDB7DEB7A3970FB6F894DEBFE3
:100900000FBECDBF4B015C018DB79EB79BA38AA3E1
:1009100024013501421A530A640A750AC301B2015F
:1009200028EE33E040E050E00E946F10CA01B901A8
:100930002AE0FE0131966F01AF010E94DC0FF60143
:1009400001900020E9F731978F010C191D09B801BA
:100950006F5F7F4F80E090E00E94D3117C01009791
:1009600031F0FC011082B6010E94AB1202C000E01F
:1009700010E02DB63EB6C80101962DB73EB7281B34
:10098000390B0FB6F8943EBF0FBE2DBF4DB75EB703
:100990004F5F5F4F6A01892B89F04115510571F056
:1009A0000115110511F4FA0108C0A801B701C6012B
:1009B0000E94B212F601E00FF11F1082B60181E031
:1009C00090E00E94CA080FB6F8943EBE0FBE2DBE3E
:1009D000C7010E943B11A4E6B0E0A30192010E946E
:1009E0002D10A50194010E940E10A90160E070E095
:1009F00087E090E00E945E082AA13BA10FB6F89420
:100A00003EBF0FBE2DBFA3960FB6F894DEBF0FBE3C
:100A1000CDBFDF91CF911F910F91FF90EF90DF90AD
:100A2000CF90BF90AF909F908F907F906F905F908E
:100A30004F903F902F9008958091F9019091FA0185
:100A400022E08334920719F48DE392E05EC022E045
:100A50008D33920719F487E392E057C022E0873381
:100A6000920739F022E08133920731F48BE292E071
:100A70004CC081E392E049C022E08B32920719F426
:100A800085E292E042C022E08532920739F022E00E
:100A90008F319207F9F489E192E037C020912A0161
:100AA00030912B0180912E0190912F012817390749
:100AB00018F08FE192E029C081E392E00E944406A1
:100AC00080912A0190912B01019690932B018093A4
:100AD0002A01089522E08931920719F483E192E016
:100AE00014C022E08331920719F48DE092E00DC02A
:100AF00022E08D30920719F487E092E006C022E0F0
:100B00008730920721F481E092E00C9444068150F2
:100B1000924039F520912C0130912D0180912E01C8
:100B200090912F012817390770F01092300189E455
:100B300092E00E94440640E050E060E070E08AE00D
:100B400090E00C945E088DE092E00E944406809153
:100B50002C0190912D01019690932D0180932C01F1
:100B6000089508959FEF980F943008F053C0833094
:100B7000E9F08430D9F08EE190E090931F018093EA
:100B80001E018FE090E090932101809320018CE37F
:100B900090E090932301809322018AE090E090936B
:100BA0002501809324018CE291E01AC08CE390E04F
:100BB00090931F0180931E018EE190E0909321019C
:100BC000809320018AE590E0909323018093220195
:100BD0008AE090E0909325018093240188E592E0DB
:100BE000909327018093260180E19EE09093290154
:100BF0008093280183E090E090932F0180932E0151
:100C000010922B0110922A0110922D0110922C01AA
:100C100081E0089580E00895E091CA02F091CB024E
:100C200082E0E63BF807A9F0A0F08FEF8083809187
:100C3000CA029091CB0201979093CB028093CA0293
:100C40008091EA029091EB0201979093EB028093DE
:100C5000EA0208958091D5029091D602DC01ED91CF
:100C6000FC910084F185E02D09951816190694F77A
:100C70008091D5029091D602DC01ED91FC91028425
:100C8000F385E02D09950895CF93DF93C6EFD1E06A
:100C90002B813C813A8329839E838D830E94140398
:100CA0006F83788789879A87CE01DF91CF910895E6
:100CB000CF93C82F8091EA029091EB0244971CF1E8
:100CC0008091D5029091D602DC01ED91FC910284D5
:100CD000F385E02D099597FFF3CF1092B3021092A0
:100CE000B4021092B5021092CF021092CE0210926E
:100CF000EB021092EA0286EB92E09093CB02809393
:100D0000CA021092B6028091EA029091EB0201961B
:100D10009093EB028093EA02E091CA02F091CB0239
:100D2000CF0101969093CB028093CA02C1838C2F8E
:100D300090E00397029710F41092D202CF91089599
:100D40002F923F924F925F926F927F928F929F92DB
:100D5000AF92BF92CF92DF92EF92FF920F931F93C9
:100D6000CF930E9414038090CC029090CD02092C66
:100D7000000CAA08BB08860E971EA81EB91E8DEF90
:100D8000282E33243A9408EF1FEF9BEFE92EFF241F
:100D9000FA9426E0722E33E0432E5524539442E019
:100DA000642E5CEFC52EDD24DA940E9414036815CE
:100DB00079058A059B0508F0D3C01092D1021092E4
:100DC000D0028091D5029091D602DC01ED91FC9188
:100DD0000084F185E02D0995892B39F43092D102F8
:100DE0002092D0028DEF9FEF0CC08091D5029091A0
:100DF000D602DC01ED91FC910284F385E02D09958A
:100E000099272091D0023091D1022D3F3F4F09F414
:100E10009FC0C82FE091CA02F091CB02808181303F
:100E200049F018F08230E1F035C0CA3051F1CB30D2
:100E300039F42BC0CA3029F138F4C63009F478C02F
:100E4000C73009F077C01BC0CB30F9F0C53109F0CD
:100E500071C00E940C06D092D102C092D0026AC02A
:100E6000C73069F038F4C53009F064C00E940C0640
:100E700083E00EC0CA3029F0CB3039F05BC084E08B
:100E800007C01092E90286E003C01092E90287E0F1
:100E90000E945806E091CA02F091CB0280819DEF3A
:100EA000980F923008F063C08091D202882309F431
:100EB00062C09091E8029C279093E802E82FF0E04E
:100EC000EE51FD4FC083853009F062C091115CC0C6
:100ED0008091B5028E3008F052C04091B40250E0CB
:100EE00090E06091E2027091E302A091E4029A0125
:100EF000009709F451C02150310910F42FE030E07F
:100F0000729EF001739EF00D1124ED5AFD4FB081D9
:100F1000B61333C0B181B71330C0B281BA132DC03C
:100F20008091E50283838091E60284831092D2024D
:100F30000E940C060E9414038090CC029090CD0277
:100F4000092C000CAA08BB08860E971EA81EB91E05
:100F5000E091CA02F091CB028081811126CF9CC022
:100F60008FEF9FEF9093D1028093D00295C086506F
:100F7000823000F72BC09C2F9FCF0197B9CFF09202
:100F8000D102E092D002D2CF1093D1020093D002CE
:100F90008F5F8093D202CECF749ED001759EB00D2C
:100FA0001124AD5ABD4FE2EEF2E0872D01900D9273
:100FB0008A95E1F78091B4028F5F8F708093B402BD
:100FC0008091B5028F5F8093B502B0CF8091E90226
:100FD000813029F4C093E0026092E902ABCF813006
:100FE00028F4C093DF025092E902A4CF823009F0C6
:100FF000A1CFC093E1024092E9028091DF028A30E2
:1010000081F4E091DB02F091DC02309791F4809161
:10101000E10281508093E1028823D9F10E942A06DF
:10102000F6CF8B30B1F5E091DD02F091DE02309722
:1010300049F16C2F8091E00209952BC08091D50277
:101040009091D602DC01ED91FC910084F185E02DB8
:1010500009951816190694F78091D5029091D60239
:10106000DC01ED91FC910284F385E02D09958091DE
:10107000D5029091D602DC01ED91FC910284F385BA
:10108000E02D09958091E10281508093E102811168
:10109000D5CF0E942A064CCFCF911F910F91FF9080
:1010A000EF90DF90CF90BF90AF909F908F907F9008
:1010B0006F905F904F903F902F900895DF92EF9246
:1010C000FF920F931F93CF93DF931F92CDB7DEB79D
:1010D000E82EF62ED52E49830E94A0061092D1024A
:1010E0001092D00205ED12E0D8018D919C91DC01A7
:1010F000ED91FC910190F081E02D61E00995F801FE
:1011000080819181DC01ED91FC910190F081E02DD5
:101110006E2D0995F80180819181DC01ED91FC91A2
:101120000190F081E02D6F2D099581E05F2D58270A
:10113000FE2CF526F80180819181DC01ED91FC9176
:101140000190F081E02D6D2D0995F801808191814C
:101150004981F426DC01ED91FC910190F081E02DB4
:10116000642F0995F80180819181DC01ED91FC915A
:101170006F2D6D250190F081E02D099581E00E9491
:1011800058060F90DF91CF911F910F91FF90EF9034
:10119000DF900895EF92FF920F931F93CF93DF9309
:1011A0008C017B01EB0109900020E9F72197C61B18
:1011B000D70BCF3FD10511F00CF04AC00E94A0061A
:1011C0008091D5029091D602DC01ED91FC910190C5
:1011D000F081E02D62E009958091D5029091D602D0
:1011E000DC01ED91FC910190F081E02D602F0995DB
:1011F000B2E00B278091D5029091D602DC01ED91EF
:10120000FC910190F081E02D6C2F0995C027D1272A
:10121000D7016C918091D5029091D602DC01ED91BD
:10122000FC910190F081E02D662351F00995F701C2
:1012300081917F01082E000C990BC827D927E8CF90
:101240006C2F099581E00E94580680E090E002C072
:101250008FEF9FEFDF91CF911F910F91FF90EF9054
:1012600008950F931F93CF93DF93CDB7DEB70DB7DC
:101270001EB720E030E0FC01E20FF31FE4912F5F86
:101280003F4FE111F8CF4DB75EB7421B530B0FB67E
:10129000F8945EBF0FBE4DBF6DB77EB76F5F7F4FD7
:1012A000DB01FC0184918D9331968111FBCF80E0AD
:1012B00090E00E94CA0880E090E00FB6F8941EBF4C
:1012C0000FBE0DBFDF91CF911F910F910895CF9267
:1012D000DF92EF92FF920F931F93CF93DF936C01F6
:1012E0007A018B01C0E0D0E0CE15DF0589F0D8018E
:1012F0006D918D01D601ED91FC910190F081E02D71
:10130000C6010995892B11F47E0102C02196ECCF0C
:10131000C701DF91CF911F910F91FF90EF90DF9068
:10132000CF9008950E949D12789484B5826084BD08
:1013300084B5816084BD85B5826085BD85B58160D9
:1013400085BD80916E00816080936E001092810057
:101350008091810082608093810080918100816012
:1013600080938100809180008160809380008091D3
:10137000B10084608093B1008091B000816080935F
:10138000B00080917A00846080937A0080917A0026
:10139000826080937A0080917A00816080937A00E5
:1013A00080917A00806880937A001092C1008FE06B
:1013B00090E00E94A610EC018FE0888380E1898391
:1013C0008EE08A831B821D821C821F821E8284E023
:1013D00088871A8619861C861B8681E08D878E87F2
:1013E00062E08FE00E949E0262E089810E949E027C
:1013F00062E08A810E949E0288810E9445022B81C0
:1014000030E08217930721F483E090E09F838E837E
:1014100089810E9445022B8130E08217930731F4C5
:101420008E819F8121E082279F838E83D09332011A
:10143000C09331011092800080E18093810021E00F
:1014400020931A018FB780931B01F89480E49FE1E9
:1014500090931901809318019093870080938600E0
:1014600080911B018FBF80918100887F80938100D4
:101470009091810080911A01982B9093810040E215
:1014800053E050931D0140931C0120936F009091F5
:101490008100892B809381008FEF9FEF90933A0119
:1014A00080933901E0916901F0916A0182E08083C3
:1014B000E0916501F09166011082E0916701F09181
:1014C000680189E0808310927101E0916D01F091D3
:1014D0006E0186E08083E0916B01F0916C01808168
:1014E00080618083E0916B01F0916C018081886064
:1014F0008083E0916B01F0916C0180818068808332
:10150000E0916B01F0916C0180818F7D808389E592
:1015100091E09093D6028093D50280E00E94580615
:101520001092B3021092B4021092B50261E082E010
:101530000E949E0260E082E00E946E0264E670E01B
:1015400080E090E00E94DA0261E082E00E946E0298
:101550006CEA7DE080E090E00E94DA0261E085E0E4
:101560000E949E0260E085E00E946E0261E086E0DB
:101570000E949E0260E086E00E946E0261E087E0C9
:101580000E949E0260E087E00E946E0261E088E0B7
:101590000E949E0260E088E00E946E02D1E080918D
:1015A000410181110CC00E94140360933D017093AE
:1015B0003E0180933F0190934001D0934101E0911F
:1015C0003101F0913201F894248135818085823097
:1015D00021F4C9018170992705C0843031F4C90113
:1015E000837099279583848302C01582148278942E
:1015F0008085843029F4359527953595279504C045
:10160000823011F4359527958685882329F08185C8
:101610009285892F992702C080E090E037FF03C0B0
:101620008095909506C0232B11F0019602C080E0B2
:1016300090E000913B0110913C01080F191F10939D
:101640003C0100933B018091390190913A010817C8
:10165000190731F1C09130018017910774F4C4303B
:10166000D8F48091F9019091FA0189549240A1F443
:101670008C2F0E94B205CF5F0DC0C23068F0809100
:10168000F9019091FA018954924031F48C2F0E9413
:10169000B205C150C093300110933A010093390153
:1016A0000E94140300913D0110913E0120913F01E1
:1016B00030914001DC01CB01801B910BA20BB30BDD
:1016C000C397A105B105E0F00E94140360933D01AA
:1016D00070933E0180933F01909340018091F90106
:1016E0009091FA0122E08934920709F07DC040917F
:1016F000300150E060E070E08BE190E00E945E0815
:10170000E0913101F0913201838594852385348500
:101710002330310511F0148613860097F1F00597F8
:10172000E1F48091F9019091FA018954924009F015
:10173000B3C280913001882381F010923801109259
:10174000370140E050E061E070E08AE090E00E9404
:101750005E0883E492E00E9444068091F601E091E5
:10176000F901F091FA01882349F00190F081E02D10
:10177000309709F009951092F60133C00091FB01F2
:101780001091FC01E017F10711F1F093F801E093DB
:10179000F7010480F581E02D309709F00995109349
:1017A000FC010093FB011093FA010093F901D801A9
:1017B000ED91FC91309709F009950E941403609314
:1017C000FD017093FE018093FF0190930002E09170
:1017D000F901F091FA010280F381E02D309709F0D0
:1017E00009950E949501DBCEB2E083349B0719F482
:1017F00088EC90E007C022E08D33920709F06DC0BD
:101800008FEB90E00E943109809138018130C1F066
:1018100028F08230F9F08330B9F155C0809137015A
:10182000882319F042E050E002C040E050E061E05F
:1018300070E08BE190E00E945E0840E050E01BC049
:1018400080913701882319F043E050E0F0CF41E068
:1018500050E0EDCF80913701882319F042E050E04D
:1018600002C040E050E061E070E08BE190E00E9457
:101870005E0841E050E062E070E08BE190E00E94A1
:101880005E0840E050E019C080913701882319F0CC
:1018900042E050E002C040E050E061E070E08BE1E7
:1018A00090E00E945E0840E050E062E070E08BE172
:1018B00090E00E945E0841E050E063E070E08BE160
:1018C00090E00E945E088091F9019091FA01A2E0F7
:1018D00083349A0709F047C03BC1A2E087339A07D7
:1018E00019F486EB90E08ECFB2E081339B0739F09C
:1018F00022E08B32920731F486EA90E083CF8EEAC1
:1019000090E080CFA2E085329A0719F48DE990E04B
:1019100079CFB2E08F319B0719F485E990E072CF5F
:1019200022E08931920719F48AE890E06BCFA2E0B7
:1019300083319A0719F481E890E064CFB2E08D30EA
:101940009B0719F489E790E05DCF22E0873092078A
:1019500039F08150924009F057CF88E690E052CF9D
:1019600081E790E04FCFB2E08D339B0731F022E06A
:101970008733920709F078C03EC180913701811109
:101980002FC0C0903301D0903401E0903501F09029
:1019900036010E94140300914F02109150022091D1
:1019A00051023091520246015701801A910AA20A4F
:1019B000B30AA5019401260F371F481F591F8091B4
:1019C000240190912501BC0180E090E0621773072B
:1019D0008407950718F40E941C0502C00E94680441
:1019E0008091F9019091FA0122E08934920749F03F
:1019F000A2E083349A0709F432C1B2E08D339B0729
:101A000031F460E085E00E946E0260E021C022E0D7
:101A10008733920709F432C1A2E081339A0709F4AF
:101A20001EC1B2E08B329B0761F322E08532920740
:101A300009F424C1A2E08F319A0709F003C1809113
:101A400037018111DECF60E085E00E946E0261E027
:101A500086E00E946E0260E087E00E946E0260E015
:101A600088E00E946E024CCEA2E081339A0709F40E
:101A70006FC0B2E08B329B0709F496C022E085323A
:101A8000920709F4B8C0A2E08F319A0729F0B2E0BA
:101A900089319B0741F52CC0809137018111A0CF7E
:101AA000C0903301D0903401E0903501F0903601C0
:101AB0000E94140300914F02109150022091510294
:101AC0003091520246015701801A910AA20AB30AC4
:101AD000A5019401260F371F481F591F809120012F
:101AE0009091210170CF22E08331920741F583C0AC
:101AF00080913701811174CFC0903301D0903401AF
:101B0000E0903501F09036010E94140300914F02DD
:101B1000109150022091510230915202460157011A
:101B2000801A910AA20AB30AA5019401260F371F51
:101B3000481F591F809128019091290144CFA2E0AC
:101B40008D309A0729F0B2E087309B0741F52CC011
:101B500080913701811144CFC0903301D09034017E
:101B6000E0903501F09036010E94140300914F027D
:101B700010915002209151023091520246015701BA
:101B8000801A910AA20AB30AA5019401260F371FF1
:101B9000481F591F80911E0190911F0114CF815041
:101BA000924009F01DCF27C080913701811118CFD5
:101BB000C0903301D0903401E0903501F0903601AF
:101BC0000E94140300914F02109150022091510283
:101BD0003091520246015701801A910AA20AB30AB3
:101BE000A5019401260F371F481F591F8091260118
:101BF00090912701E8CE809137018111F1CEC090FC
:101C00003301D0903401E0903501F09036010E940C
:101C1000140300914F021091500220915102309113
:101C2000520246015701801A910AA20AB30AA5017D
:101C30009401260F371F481F591F80912201909150
:101C40002301C1CEB2E089319B0709F4DACE22E04C
:101C50008331920799F0A2E08D309A0731F4809198
:101C600037018111CECE61E0CDCEB2E087309B0747
:101C700009F4C7CE8150924009F042CD80913701DE
:101C80008111BFCE60E085E00E946E0260E086E0D8
:101C90000E946E0261E0E0CEC0913801CC2309F4CD
:101CA0005CCDC23009F444C0C33009F45AC0C1301D
:101CB00009F053CD80913701811127C00E94140390
:101CC00000914F0210915002209151023091520226
:101CD000DC01CB01801B910BA20BB30B8093330172
:101CE00090933401A0933501B09336010E94140300
:101CF00060934F027093500280935102909352026E
:101D0000C093370143E050E00EC00E94140360937B
:101D10004F0270935002809351029093520210929E
:101D2000370141E050E061E070E08BE190E025C0D8
:101D300010923801109237010E94140360934F02F1
:101D4000709350028093510290935202109233018B
:101D50001092340110923501109236010E941C0538
:101D6000FCCC1092300189E492E00E94440640E0ED
:101D700050E060E070E08AE090E00E945E08EDCC08
:101D8000E9E5F1E01382128288EE93E0A0E0B0E092
:101D900084839583A683B7838AE091E091838083CF
:101DA00085EC90E09587848784EC90E09787868720
:101DB00080EC90E0918B808B81EC90E0938B828B18
:101DC00082EC90E0958B848B86EC90E0978B868BF1
:101DD000118E128E138E148E1092DA021092D90286
:101DE0001092DC021092DB021092DE021092DD02F1
:101DF0001092D8021092D702E6EBF2E01082F09334
:101E0000CB02E093CA0288EE93E09093CD028093D8
:101E1000CC021092CF021092CE021092D1021092F8
:101E2000D0021092D2021092D4021092D3020E94D9
:101E3000140360934F027093500280935102909369
:101E40005202E9E4F2E011821082138212821582BA
:101E50001482A3E4B2E011961C921E9213961C9277
:101E60001E92129715961C921E921497ADE3B2E043
:101E700011961C921E9213961C921E921297159602
:101E80001C921E921497A7E3B2E011961C921E9228
:101E900013961C921E92129715961C921E921497DE
:101EA000A1E3B2E011961C921E9213961C921E9210
:101EB000129715961C921E921497ABE2B2E01196FF
:101EC0001C921E9213961C921E92129715961C92AB
:101ED0001E921497A5E2B2E011961C921E921396E0
:101EE0001C921E92129715961C921E921497AFE1A7
:101EF000B2E011961C921E9213961C921E9212979B
:101F000015961C921E921497A9E1B2E011961C92AC
:101F10001E9213961C921E92129715961C921E9258
:101F20001497A3E1B2E011961C921E9213961C9294
:101F30001E92129715961C921E921497ADE0B2E075
:101F400011961C921E9213961C921E921297159631
:101F50001C921E921497A7E0B2E011961C921E925A
:101F600013961C921E92129715961C921E9214970D
:101F7000A1E0B2E011961C921E9213961C921E9242
:101F8000129715961C921E921497A6EFB1E081E06D
:101F90008C931696FC93EE9315971496FC93EE9300
:101FA00013971296FC93EE93119717961D921D921C
:101FB0001D921C921A970895BB27FA01A62F62174B
:101FC000710581059105330B30FB66F0AA27660F7A
:101FD000771F881F991FAA1FA21710F0A21B6395D5
:101FE0003850A9F7A05DAA3308F0A95DA19336F790
:101FF000B111B1931082CA010C94FE0FDC01FC01F7
:10200000672F71917723E1F7329704C07C916D932C
:1020100070836291AE17BF07C8F30895052E97FB32
:102020001EF400940E94251057FD07D00E946F10E7
:1020300007FC03D04EF40C94251050954095309534
:1020400021953F4F4F4F5F4F089590958095709524
:1020500061957F4F8F4F9F4F08950E949110A59FCC
:10206000900DB49F900DA49F800D911D1124089593
:102070002F923F924F925F926F927F928F929F9298
:10208000AF92BF92CF92DF92EF92FF920F931F9386
:10209000CF93DF93CDB7DEB7CA1BDB0B0FB6F89437
:1020A000DEBF0FBECDBF09942A88398848885F8477
:1020B0006E847D848C849B84AA84B984C884DF80E8
:1020C000EE80FD800C811B81AA81B981CE0FD11DCC
:1020D0000FB6F894DEBF0FBECDBFED010895A1E2AB
:1020E0001A2EAA1BBB1BFD010DC0AA1FBB1FEE1F92
:1020F000FF1FA217B307E407F50720F0A21BB30BDD
:10210000E40BF50B661F771F881F991F1A9469F758
:1021100060957095809590959B01AC01BD01CF01B4
:102120000895A29FB001B39FC001A39F700D811DB0
:102130001124911DB29F700D811D1124911D0895D0
:10214000EE0FFF1F0590F491E02D0994CF93DF93DC
:102150008230910510F482E090E0E091EE02F0917F
:10216000EF0220E030E0C0E0D0E0309711F1408194
:10217000518148175907C0F04817590761F4828107
:102180009381209719F09B838A832BC09093EF0251
:102190008093EE0226C02115310519F0421753072E
:1021A00018F49A01BE01DF01EF010280F381E02DF6
:1021B000DCCF2115310509F1281B390B24303105FD
:1021C00090F412968D919C9113976115710521F0F1
:1021D000FB019383828304C09093EF028093EE020D
:1021E000FD01329644C0FD01E20FF31F81939193EC
:1021F000225031092D933C933AC02091EC0230914A
:10220000ED02232B41F42091020130910301309320
:10221000ED022093EC022091000130910101211583
:10222000310541F42DB73EB74091040150910501AD
:10223000241B350BE091EC02F091ED02E217F3075D
:10224000A0F42E1B3F0B2817390778F0AC014E5F26
:102250005F4F2417350748F04E0F5F1F5093ED0274
:102260004093EC028193919302C0E0E0F0E0CF0153
:10227000DF91CF9108950F931F93CF93DF93009732
:1022800009F48CC0FC013297138212820091EE0295
:102290001091EF020115110581F420813181820F27
:1022A000931F2091EC023091ED022817390779F540
:1022B000F093ED02E093EC0271C0D80140E050E0F1
:1022C000AE17BF0750F412962D913C911397AD01B4
:1022D0002115310509F1D901F3CF9D01DA013383CD
:1022E000228360817181860F971F8217930769F49B
:1022F000EC0128813981260F371F2E5F3F4F318334
:1023000020838A819B8193838283452B29F4F093D8
:10231000EF02E093EE0242C01396FC93EE93129705
:10232000ED01499159919E01240F351FE217F307E2
:1023300071F480819181840F951F029611969C9370
:102340008E938281938113969C938E931297E0E0F3
:10235000F0E0D80112968D919C911397009719F097
:10236000F8018C01F6CF8D919C9198012E5F3F4F23
:10237000820F931F2091EC023091ED02281739074C
:1023800069F4309729F41092EF021092EE0202C025
:10239000138212821093ED020093EC02DF91CF9131
:1023A0001F910F910895A0E0B0E0E9EDF1E10C94E8
:1023B0003C10EC01009721F4CB010E94A610B8C09C
:1023C000FC01E60FF71F9C0122503109E217F307C9
:1023D00008F4ACC0D9010D911C911197061717078D
:1023E000B0F00530110508F49FC0C80104978617A6
:1023F000970708F499C002501109061B170B0193A7
:1024000011936D937C93CF010E943B118DC05B01B2
:10241000A01AB10A4C01800E911EA091EE02B0915B
:10242000EF0240E050E0E12CF12C109709F44AC093
:10243000A815B905D1F56D907C901197630182E0E4
:10244000C80ED11CCA14DB0480F1A3014A195B0930
:102450006A0182E0C80ED11C1296BC9012971396A6
:10246000AC91B5E0CB16D10440F0B282A383518386
:102470004083D9016D937C930AC00E5F1F4FC30147
:10248000800F911FF90191838083EB2DFA2FE114C6
:10249000F10431F0D7011396FC93EE93129744C0E8
:1024A000F093EF02E093EE023FC08D919C91119763
:1024B0004817590708F4AC017D0112960D90BC91A4
:1024C000A02DB3CF8091EC029091ED028815990573
:1024D000E1F446175707C8F480910001909101017B
:1024E000009741F48DB79EB74091040150910501CA
:1024F000841B950BE817F907C8F4F093ED02E093FD
:10250000EC02F901718360830FC0CB010E94A61019
:102510007C01009759F0A801BE010E94A212CE01D1
:102520000E943B11C70104C0CE0102C080E090E0D0
:10253000CDB7DEB7EEE00C94581081E090E0F8944F
:102540000C94C112FB01DC0102C001900D924150BC
:102550005040D8F70895FB01DC0101900D92002056
:10256000E1F70895FB01DC014150504048F0019033
:102570000D920020C9F701C01D9241505040E0F774
:062580000895F894FFCF5E
:102586000000F0028000000000002C016709C40072
:082596007301F500D300E7001A
:00000001FF
